:020000040800F2
:1000000000500020694400087D180008811800088D
:1000100085180008891800088D18000800000000E5
:10002000000000000000000000000000911800081F
:100030009518000800000000991800089D18000895
:10004000B1440008B1440008B1440008B1440008BC
:10005000B1440008B1440008B1440008B1440008AC
:10006000B1440008B1440008B1440008B14400089C
:10007000B1440008B1440008B1440008B14400088C
:10008000B1440008B1440008A5180008B1440008B4
:10009000B1440008B1440008B1440008B14400086C
:1000A000B5180008C5180008D5180008E51800089C
:1000B000B1440008B1440008B1440008B14400084C
:1000C000B1440008B1440008B1440008B14400083C
:1000D000B1440008F518000805190008B1440008EB
:1000E000B1440008B1440008B14400080000000019
:1000F0000000000000000000000000000000000000
:0C01000000000000000000005FF808F1A3
:1001100010B5054C237833B9044B13B10448AFF341
:1001200000800123237010BD500400200000000057
:100130008C460008084B10B51BB108490848AFF3BE
:1001400000800848036803B910BD074B002BFBD0A3
:10015000BDE81040184700BF000000005404002014
:100160008C460008500400200000000081F000418F
:1001700002E000BF83F0004330B54FEA41044FEA8C
:10018000430594EA050F08BF90EA020F1FBF54EA27
:10019000000C55EA020C7FEA645C7FEA655C00F0C3
:1001A000E2804FEA5454D4EB5555B8BF6D420CDD94
:1001B0002C4480EA020281EA030382EA000083EA17
:1001C000010180EA020281EA0303362D88BF30BDB7
:1001D00011F0004F4FEA01314FF4801C4CEA11310D
:1001E00002D0404261EB410113F0004F4FEA03336C
:1001F0004CEA133302D0524263EB430394EA050FF7
:1002000000F0A780A4F10104D5F1200E0DDB02FA65
:100210000EFC22FA05F2801841F1000103FA0EF2F9
:10022000801843FA05F359410EE0A5F120050EF1BF
:10023000200E012A03FA0EFC28BF4CF0020C43FAF0
:1002400005F3C01851EBE37101F0004507D54FF0FD
:10025000000EDCF1000C7EEB00006EEB0101B1F54D
:10026000801F1BD3B1F5001F0CD349085FEA300093
:100270004FEA3C0C04F101044FEA445212F5800F9E
:1002800080F09A80BCF1004F08BF5FEA500C50F13B
:10029000000041EB045141EA050130BD5FEA4C0C1E
:1002A000404141EB010111F4801FA4F10104E9D1A7
:1002B00091F0000F04BF01460020B1FA81F308BF9E
:1002C0002033A3F10B03B3F120020CDA0C3208DD6A
:1002D00002F1140CC2F10C0201FA0CF021FA02F145
:1002E0000CE002F11402D8BFC2F1200C01FA02F1B5
:1002F00020FA0CFCDCBF41EA0C019040E41AA2BFDA
:1003000001EB0451294330BD6FEA04041F3C1CDAA1
:100310000C340EDC04F11404C4F1200220FA04F0C1
:1003200001FA02F340EA030021FA04F345EA03016B
:1003300030BDC4F10C04C4F1200220FA02F001FA2D
:1003400004F340EA0300294630BD21FA04F02946AF
:1003500030BD94F0000F83F4801306BF81F4801148
:100360000134013D4EE77FEA645C18BF7FEA655CBB
:1003700029D094EA050F08BF90EA020F05D054EA8D
:10038000000C04BF1946104630BD91EA030F1EBF92
:100390000021002030BD5FEA545C05D14000494196
:1003A00028BF41F0004130BD14F580043CBF01F589
:1003B000801130BD01F0004545F0FE4141F470016F
:1003C0004FF0000030BD7FEA645C1ABF194610464A
:1003D0007FEA655C1CBF0B46024650EA013406BF4B
:1003E00052EA033591EA030F41F4002130BD00BF0A
:1003F00090F0000F04BF0021704730B54FF48064C7
:1004000004F132044FF000054FF0000150E700BF47
:1004100090F0000F04BF0021704730B54FF48064A6
:1004200004F1320410F0004548BF40424FF0000193
:100430003EE700BF42004FEAE2014FEA31014FEAD6
:1004400002701FBF12F07F4393F07F4F81F0605125
:10045000704792F0000F14BF93F07F4F704730B594
:100460004FF4607401F0004521F0004120E700BF27
:1004700050EA010208BF704730B54FF000050AE0AE
:1004800050EA010208BF704730B511F0004502D5AF
:10049000404261EB41014FF4806404F132045FEAB1
:1004A000915C3FF4DCAE4FF003025FEADC0C18BF56
:1004B00003325FEADC0C18BF033202EBDC02C2F14C
:1004C000200300FA03FC20FA02F001FA03FE40EADE
:1004D0000E0021FA02F11444C1E600BF70B54FF0DE
:1004E000FF0C4CF4E06C1CEA11541DBF1CEA1355C0
:1004F00094EA0C0F95EA0C0F00F0DEF82C4481EA28
:10050000030621EA4C5123EA4C5350EA013518BF47
:1005100052EA033541F4801143F4801338D0A0FB34
:1005200002CE4FF00005E1FB02E506F00042E0FBE1
:1005300003E54FF00006E1FB03569CF0000F18BFE7
:100540004EF0010EA4F1FF04B6F5007F64F540748F
:1005500004D25FEA4E0E6D4146EB060642EAC62122
:1005600041EA55514FEAC52040EA5E504FEACE2E8F
:10057000B4F1FD0C88BFBCF5E06F1ED8BEF1004F92
:1005800008BF5FEA500E50F1000041EB045170BD0E
:1005900006F0004646EA010140EA020081EA030152
:1005A000B4EB5C04C2BFD4EB0C0541EA045170BD4E
:1005B00041F480114FF0000E013C00F3AB8014F1C8
:1005C000360FDEBF002001F0004170BDC4F1000411
:1005D000203C35DA0C341BDC04F11404C4F1200592
:1005E00000FA05F320FA04F001FA05F240EA0200ED
:1005F00001F0004221F0004110EBD37021FA04F623
:1006000042EB06015EEA430E08BF20EAD37070BDDC
:10061000C4F10C04C4F1200500FA04F320FA05F03B
:1006200001FA04F240EA020001F0004110EBD3703D
:1006300041F100015EEA430E08BF20EAD37070BDAD
:10064000C4F1200500FA05F24EEA020E20FA04F386
:1006500001FA05F243EA020321FA04F001F0004135
:1006600021FA04F220EA020000EBD3705EEA430EA6
:1006700008BF20EAD37070BD94F0000F0FD101F0D5
:100680000046400041EB010111F4801F08BF013C0E
:10069000F7D041EA060195F0000F18BF704703F04C
:1006A0000046520043EB030313F4801F08BF013DD3
:1006B000F7D043EA0603704794EA0C0F0CEA13558F
:1006C00018BF95EA0C0F0CD050EA410618BF52EA49
:1006D0004306D1D181EA030101F000414FF000004F
:1006E00070BD50EA410606BF1046194652EA43065D
:1006F00019D094EA0C0F02D150EA013613D195EAD1
:100700000C0F05D152EA03361CBF104619460AD118
:1007100081EA030101F0004141F0FE4141F4700122
:100720004FF0000070BD41F0FE4141F4780170BD12
:1007300070B54FF0FF0C4CF4E06C1CEA11541DBF77
:100740001CEA135594EA0C0F95EA0C0F00F0A7F879
:10075000A4EB050481EA030E52EA03354FEA0131A6
:1007600000F088804FEA03334FF0805545EA1313B9
:1007700043EA12634FEA022245EA111545EA106581
:100780004FEA00260EF000419D4208BF964244F118
:10079000FD0404F5407402D25B084FEA3202B61A37
:1007A00065EB03055B084FEA32024FF480104FF40B
:1007B000002CB6EB020E75EB030E22BFB61A75467F
:1007C00040EA0C005B084FEA3202B6EB020E75EB12
:1007D000030E22BFB61A754640EA5C005B084FEA7A
:1007E0003202B6EB020E75EB030E22BFB61A754647
:1007F00040EA9C005B084FEA3202B6EB020E75EB52
:10080000030E22BFB61A754640EADC0055EA060E12
:1008100018D04FEA051545EA16754FEA06164FEA55
:10082000C30343EA52734FEAC2025FEA1C1CC0D101
:1008300011F4801F0BD141EA00014FF000004FF08E
:10084000004CB6E711F4801F04BF01430020B4F14F
:10085000FD0C88BFBCF5E06F3FF6AFAEB5EB030C07
:1008600004BFB6EB020C5FEA500C50F1000041EB04
:10087000045170BD0EF0004E4EEA113114EB5C04D1
:10088000C2BFD4EB0C0541EA045170BD41F48011A4
:100890004FF0000E013C90E645EA060E8DE60CEAAC
:1008A000135594EA0C0F08BF95EA0C0F3FF43BAFC9
:1008B00094EA0C0F0AD150EA01347FF434AF95EA80
:1008C0000C0F7FF425AF104619462CE795EA0C0F64
:1008D00006D152EA03353FF4FDAE1046194622E731
:1008E00050EA410618BF52EA43067FF4C5AE50EA0B
:1008F00041047FF40DAF52EA43057FF4EBAE12E7FB
:100900004FEA410212F5001215D211D56FF4787337
:10091000B3EB625212D94FEAC12343F0004343EADA
:10092000505311F0004F23FA02F018BF40427047B5
:100930004FF00000704750EA013005D111F000403F
:1009400008BF6FF0004070474FF00000704700BFD5
:100950004FEA4102B2F1E04324BFB3F5001CDCF1E1
:10096000FE5C0DD901F0004C4FEAC0024CEA507019
:10097000B2F1004F40EB830008BF20F00100704748
:1009800011F0804F21D113F13872BCBF01F000404B
:10099000704741F480114FEA5252C2F11802C2F17D
:1009A000200C10FA0CF320FA02F018BF40F00100FE
:1009B0004FEAC1234FEAD32303FA0CFC40EA0C00B0
:1009C00023FA02F34FEA4303CCE77FEA625307D1ED
:1009D00050EA01331EBF4FF0FE4040F44000704724
:1009E00001F0004040F0FE4040F40000704700BFBE
:1009F00080F0004002E000BF81F0004142001FBFD4
:100A00005FEA410392EA030F7FEA226C7FEA236CDC
:100A10006AD04FEA1262D2EB1363C1BFD2184140D1
:100A200048404140B8BF5B42192B88BF704710F067
:100A3000004F40F4000020F07F4018BF404211F00A
:100A4000004F41F4000121F07F4118BF494292EA72
:100A5000030F3FD0A2F1010241FA03FC10EB0C009E
:100A6000C3F1200301FA03F100F0004302D549422B
:100A700060EB4000B0F5000F13D3B0F1807F06D3D8
:100A800040084FEA310102F10102FE2A51D2B1F1D0
:100A9000004F40EBC25008BF20F0010040EA0300C5
:100AA0007047490040EB000010F4000FA2F1010272
:100AB000EDD1B0FA80FCACF1080CB2EB0C0200FAFC
:100AC0000CF0AABF00EBC25052421843BCBFD0404A
:100AD0001843704792F0000F81F4000106BF80F4C4
:100AE00000000132013BB5E74FEA41037FEA226C87
:100AF00018BF7FEA236C21D092EA030F04D092F052
:100B0000000F08BF0846704790EA010F1CBF002085
:100B1000704712F07F4F04D1400028BF40F00040E2
:100B2000704712F100723CBF00F50000704700F002
:100B3000004343F0FE4040F4000070477FEA226229
:100B400016BF08467FEA23630146420206BF5FEAFA
:100B5000412390EA010F40F4800070474FF00003FA
:100B600004E000BF10F0004348BF40425FEA000CC1
:100B700008BF704743F0964301464FF000001CE069
:100B800050EA010208BF70474FF000030AE000BFBF
:100B900050EA010208BF704711F0004302D54042FD
:100BA00061EB41015FEA010C02BF8446014600206F
:100BB00043F0B64308BFA3F18053A3F50003BCFA8A
:100BC0008CF2083AA3EBC25310DB01FA02FC634437
:100BD00000FA02FCC2F12002BCF1004F20FA02F23E
:100BE00043EB020008BF20F00100704702F1200231
:100BF00001FA02FCC2F1200250EA4C0021FA02F292
:100C000043EB020008BF20EADC7070474FF0FF3C66
:100C100006E000BF4FF0010C02E000BF4FF0010CF6
:100C20004DF804CD4FEA40024FEA41037FEA226CBF
:100C300018BF7FEA236C11D001B052EA530C18BFE1
:100C400090EA010F58BFB2EB030088BFC81738BF46
:100C50006FEAE17018BF40F0010070477FEA226C34
:100C600002D15FEA402C05D17FEA236CE4D15FEA30
:100C7000412CE1D05DF8040B704700BF8446084664
:100C80006146FFE70FB5FFF7C9FF002848BF10F125
:100C9000000F0FBD4DF808EDFFF7F4FF0CBF01206A
:100CA00000205DF808FB00BF4DF808EDFFF7EAFFF4
:100CB00034BF012000205DF808FB00BF4DF808EDAF
:100CC000FFF7E0FF94BF012000205DF808FB00BFA4
:100CD0004DF808EDFFF7D2FF94BF012000205DF82A
:100CE00008FB00BF4DF808EDFFF7C8FF34BF012037
:100CF00000205DF808FB00BF42000ED2B2F1FE4FAB
:100D00000BD34FF09E03B3EB126209D44FEA0023DA
:100D100043F0004323FA02F070474FF000007047A1
:100D200012F1610F01D1420202D14FF0FF30704742
:100D30004FF00000704700BF044B00225A801A8019
:100D40003C229A60024A5A60704700BF6C0400203F
:100D50007804002000B583B0094A6B4610685168DA
:100D600003C3FFF7E9FF4FF6FF7308226946054802
:100D700003F052F9C82000F037FF03B05DF804FB20
:100D8000A4460008E805002000B583B0FFF7D4FFB3
:100D90006B46094A52F8080F516803C34FF6FF73B8
:100DA00008226946054803F037F9642000F01CFF6B
:100DB00003B05DF804FB00BFA4460008E80500206E
:100DC00000B583B0FFF7B8FF6B46094A52F8100F21
:100DD000516803C34FF6FF7308226946054803F0C4
:100DE0001BF9642000F000FF03B05DF804FB00BFB6
:100DF000A4460008E805002010B443880133846845
:100E0000B3FBF4F204FB12339BB243804268D1542B
:100E100010BC704708B5012201460248FFF7ECFFFD
:100E200008BD00BF6C04002010B582B0114B5B7888
:100E3000012B15D10F4B1A798DF807205B798DF8AE
:100E400006300D4C642301220DF10701204603F00A
:100E5000E3F8642301220DF10601204603F0DCF8DB
:100E60003C220021034803F04DFB0020FFF7C0FAAD
:100E700002B010BD780400202C06002000B585B01B
:100E800000230193029303930F48104A026083608A
:100E9000037303754FF46022C26143600123036151
:100EA00001F0CEF808B100F075FA00230193012299
:100EB0000292039301A9044800F032FF08B100F048
:100EC00069FA05B05DF804FBB40400200024014079
:100ED00000B587B00023029303930493059302683F
:100EE000144B9A4223D103F56C439A6942F4007281
:100EF0009A619A6902F400720092009A9A6942F02B
:100F000004029A619B6903F004030193019B01238E
:100F100002930323039302A9074801F0EFF900228B
:100F20001146122001F026F9122001F055F907B000
:100F30005DF804FB002401400008014000B585B0C5
:100F400004AA02F8010D4FF6FF7300930123462116
:100F5000024801F033FE05B05DF804FBE404002014
:100F600000B583B04FF6FF7300930223024647217A
:100F7000024801F0DBFE03B05DF804FBE40400204E
:100F800008B50278437803EB022080B2FFF740FAFD
:100F90004FF03332034BFFF7CBFBFFF7B1FC80B2CE
:100FA00008BD00BF3333F33F70B588B0002404940C
:100FB000059406940794204B9A6942F010029A61B6
:100FC0009A6902F010020092009A9A6942F0200297
:100FD0009A619A6902F020020192019A9A6942F09C
:100FE00004029A619A6902F004020292029A9A69D2
:100FF00042F008029A619B6903F008030393039B84
:101000000E4E22464FF40051304601F065FA4FF47F
:10101000005304930123059306940225079504A920
:10102000304601F06BF904950594069404A9044830
:1010300001F064F908B070BD0010024000100140DA
:101040000008014008B50A480A4B03600A4B436098
:1010500000238360C3604FF4804202614361836177
:10106000C361036201F0D0FC08B100F093F908BD40
:101070003805002000540040A086010008B50A4849
:101080000A4B03600A4B436000238360C3604FF444
:101090008042026143618361C361036201F0B4FC79
:1010A00008B100F077F908BDE404002000580040C2
:1010B000A086010010B588B0002304930593069321
:1010C00007930368214A93421DD1214CA36943F041
:1010D0000803A361A36903F008030093009BC023E6
:1010E0000493122305930323079304A9194801F0DD
:1010F00005F9E36943F40013E361E36903F40013C2
:101100000193019B20E0144A93421DD1104CA36926
:1011100043F00803A361A36903F008030293029B51
:101120004FF440630493122305930323079304A908
:10113000084801F0E3F8E36943F48003E361E369FD
:1011400003F480030393039B08B010BD00540040D8
:1011500000100240000C01400058004008B54FF458
:10116000FA7000F041FD0E230E4A0221084600F0FD
:1011700047FB03230C4A1946022000F041FB40F6CE
:10118000B83000F031FD00F07BFA1F23074A002140
:10119000084600F035FB40F6B83000F025FD00F0C1
:1011A0006FFA08BDD0460008E0460008E84600088F
:1011B00038B51A4C4FF47A7329221949204602F0A7
:1011C0002BFF4FF4FA7000F00FFD4FF47A730F22EB
:1011D0001449204602F020FF4FF4FA7000F004FD9D
:1011E0004FF47A730D221049204602F015FF4FF498
:1011F000FA7000F0F9FC0D4D4FF47A73192229466C
:10120000204602F009FF16232A460021084600F076
:10121000F7FA4FF47A7000F0E7FC38BD2C06002096
:101220000C4700083847000848470008584700089E
:1012300010B582B002AC002324F8043DC82000F0B1
:10124000D3FC2020FFF77AFEC82000F0CDFC20461A
:10125000FFF786FE20B901A8FFF792FE014B188028
:1012600002B010BD9405002038B503680E4A9342C1
:1012700010D10E4C204602F0DDFB0D4D0122294617
:101280000C4803F0D5F82878FFF7C4FD204602F09B
:101290009DFB38BD084A934204D101220749084802
:1012A00003F0C6F838BD00BF00380140A00500209B
:1012B00096050020E8050020004400408C05002031
:1012C0002C06002000000000D0B50446244800F0A1
:1012D0009FFCFFF743FC234B1860FFF7ABF8064673
:1012E0000F4619A3D3E90023FFF7F8F800221E4B9D
:1012F000FFF7F4F8FFF72CFB1C4B186014A3D3E99D
:10130000002330463946FFF7E9F813A3D3E9002359
:10131000FEF732FFFFF71CFB154B18600021FFF7AB
:10132000C3FC10B10022124B1A601249104B18680E
:10133000FFF7D8FC10B10F4A0D4B1A60204600F0A1
:10134000D1FDD0BDAFF300806666666666660A4072
:10135000144551144551A4BF0CC3300CC3F0634075
:10136000B40400209C0500200000303F90050020C0
:10137000980500200000C84208B5054B834206D1FD
:10138000184602F057FBFFF74FFDFFF7D5FC08BDED
:10139000A005002072B6FEE700B595B02822002116
:1013A0000DEB020003F0AEF80023059306930793BC
:1013B00008930993019302930393049301220A92E1
:1013C0004FF480330B930E920222119212934FF43A
:1013D000E01313930AA801F011FF08B1FFF7DAFF39
:1013E0000F23059302210691002307934FF4806297
:1013F0000892099305A802F053F908B1FFF7CAFF54
:10140000022301934FF40043039301A802F026FA4C
:1014100008B1FFF7BFFF15B05DF804FB10B584B04D
:1014200000F0BEFBFFF7B8FFFFF7BEFD00F0E4FAE7
:1014300000F0FCFAFFF706FEFFF720FEFFF71EFDA7
:1014400000F06AFA00F014F900F01AF90122594983
:10145000594802F0EDFF01225849594802F0E8FFCF
:10146000584800F03FFDFFF779FEFFF7A1FE00F0BE
:1014700007F90E23544A0121084600F0C1F94F4BE9
:101480001B78302B1DD101224FF400514F4801F041
:1014900023F84F4C42F210730B222146484802F0C9
:1014A000BBFD42F210730B222146434802F0B4FD0B
:1014B00000F0E6F8082322460021084600F0A0F9D3
:1014C00073E0312B1DD100224FF400513F4801F051
:1014D00003F8404C42F210730A222146384802F0C9
:1014E0009BFD42F210730A222146334802F094FD1C
:1014F00000F0C6F8072322460021084600F080F9D4
:1015000053E0322B2AD1FFF793FE334B1B888DF823
:101510000E301B0A04A901F8013D294C6423012265
:10152000204602F079FD642301220DF10E012046D0
:1015300002F072FD00F0A4F89DF80E200124009442
:1015400002230021084600F01DF99DF80F200094A9
:1015500002232146204600F015F926E0332B16D150
:101560001E4B1868FFF7C8FB04A901F8010D64239E
:101570000122134802F050FD00F082F89DF80F2080
:10158000012000900A23014600F0FCF80DE0342B06
:1015900002D1FFF7DFFB08E0352B02D1FFF7F4FBA8
:1015A00003E0362B01D1FFF70BFC4FF47A7000F00B
:1015B0001BFB64E796050020E80500208C05002051
:1015C0002C060020B40400207447000800100140DD
:1015D00084470008904700089405002098050020E3
:1015E00010B584B000240EE04FF480730293012301
:1015F0000193074A2244009200227821054801F015
:1016000031FD0134E4B21A2CEED904B010BD00BF94
:10161000000000203805002000B587B006AA02F8B7
:10162000010D4FF480730293012301930092002275
:101630007821034801F016FD07B05DF804FB00BFF8
:101640003805002000B587B006AA02F8010D4FF456
:101650008073029301230193009240227821034872
:1016600001F000FD07B05DF804FB00BF3805002065
:1016700008B5C82000F0B8FAFFF7B2FF08BD00BFF8
:1016800038B5002516E0A5F15000C0B2FFF7C4FF41
:101690000020FFF7C1FF1020FFF7BEFF002404E089
:1016A0000020FFF7CFFF0134E4B214F0800FF7D031
:1016B0000135EDB2072DE6D938BD00BF10B504469F
:1016C0005039C8B2FFF7A8FF200940F01000FFF71B
:1016D000A3FF04F00F00FFF79FFF10BD012202E0FF
:1016E00000FB02F219464B1EDBB20029F8D110466E
:1016F000704700BFF8B507460E46203AD5B210F045
:10170000800F02D00236F6B20027102B22D13146CC
:101710003846FFF7D3FF002407E004EB0513174A10
:10172000D05CFFF78FFF0134E4B2072CF5D9711CB0
:10173000C9B23846FFF7C2FF002408E004EB0513E6
:1017400008330E4AD05CFFF77DFF0134E4B2072C6A
:10175000F4D9F8BD31463846FFF7B0FF002409E060
:1017600005EB45025300064A1344185DFFF76AFF74
:101770000134E4B2052CF3D9F8BD00BF9C47000842
:101780007C4D00082DE9F0478246894690461D466B
:101790009DF8206000273C462CE0291B0139C9B286
:1017A0000A20FFF79BFFB8FBF0F0144AA2FB0032BF
:1017B000D20802EB82025300C21AD2B277B96B1E72
:1017C0009C420BDA4AB9700800FB04A03346202281
:1017D0004946C0B2FFF78EFF0AE001273032700899
:1017E00000FB04A03346D2B24946C0B2FFF782FFE5
:1017F0000134E4B2AC42D0D3BDE8F087CDCCCCCC40
:101800002DE9F04104460E461746984600250DE0A6
:10181000434631462046FFF76DFF0834E4B2782C8A
:1018200002D90236F6B200240135EDB27A5D002A03
:10183000EED1BDE8F08100BF82B00E4B9A6942F054
:1018400001029A619A6902F001020092009ADA6933
:1018500042F08052DA61DB6903F080530193019B0F
:10186000054A536823F0E06343F00073536002B00D
:10187000704700BF0010024000000140FEE700BFBB
:10188000FEE700BFFEE700BFFEE700BFFEE700BFC8
:10189000704700BF704700BF704700BF08B500F039
:1018A00091F908BD08B5024800F0B8F908BD00BFBD
:1018B000B404002008B5024802F0DEF808BD00BFFD
:1018C000A005002008B5024802F0D6F808BD00BF08
:1018D000A005002008B5024802F0CEF808BD00BF00
:1018E000A005002008B5024802F0C6F808BD00BFF8
:1018F000A005002008B5024802F082FC08BD00BF28
:10190000E805002008B5024802F07AFC08BD00BFD7
:101910002C060020704700BF00B587B0002302935B
:10192000039304930593009301931548154A0260AD
:1019300040F2E732426083604FF6FF72C26003619B
:101940004361836102F08AF908B1FFF723FD06A91C
:101950004FF4805341F8103D094802F0B9F908B13D
:10196000FFF718FD0023009301936946044802F035
:1019700021FA08B1FFF70EFD07B05DF804FB00BFC8
:10198000A0050020002C014002681A4B9A422FD17A
:1019900000B583B003F564439A6942F400629A612A
:1019A0009B6903F400630193019B002211461820F8
:1019B00000F0E0FB182000F00FFC00221146192077
:1019C00000F0D8FB192000F007FC002211461A2075
:1019D00000F0D0FB1A2000F0FFFB002211461B2074
:1019E00000F0C8FB1B2000F0F7FB03B05DF804FB20
:1019F000704700BF002C014008B50A480A4B03603D
:101A00004FF49653436000238360C36003610C224C
:101A100042618361C36102F0CDFA08B1FFF7BAFCFD
:101A200008BD00BFE80500200038014008B50A489D
:101A30000A4B03604FF4E133436000238360C360CB
:101A400003610C2242618361C36102F0B3FA08B101
:101A5000FFF7A0FC08BD00BF2C060020004400409A
:101A600030B589B000230493059306930793036868
:101A7000344A934231D1344B9A6942F480429A619C
:101A80009A6902F480420092009A9A6942F0040234
:101A90009A619B6903F004030193019B4FF4007367
:101AA00004930223059303230793284D04A9284692
:101AB00000F024FC4FF48063049300240594069402
:101AC00004A9284600F01AFC22462146252000F0F1
:101AD00051FB252000F080FB31E01D4A93422ED1BE
:101AE000194BDA6942F40032DA61DA6902F4003241
:101AF0000292029A9A6942F004029A619B6903F089
:101B000004030393039B04230493022305930323F9
:101B100007930E4D04A9284600F0F0FB0823049318
:101B200000240594069404A9284600F0E7FB224609
:101B30002146262000F01EFB262000F04DFB09B0B8
:101B400030BD00BF003801400010024000080140D5
:101B50000044004010B504460E4B18784FF47A73D9
:101B6000B3FBF0F30C4A1068B0FBF3F000F042FB5B
:101B700058B90F2C0BD8002221464FF0FF3000F04F
:101B8000F9FA064B1C60002010BD012010BD012099
:101B900010BD00BF240000201C00002020000020F9
:101BA00008B5074A136843F010031360032000F0E0
:101BB000CFFA0F20FFF7CEFFFFF73EFE002008BD53
:101BC00000200240034A1368034909780B4413605C
:101BD000704700BF7006002024000020014B1868E9
:101BE000704700BF7006002038B50446FFF7F6FFC7
:101BF0000546B4F1FF3F02D0044B1B781C44FFF7AD
:101C0000EDFF401B8442FAD838BD00BF24000020FD
:101C10000368D86C704700BF704700BF10B504461A
:101C200003685A6812F0200F2AD01A6812F0020FC7
:101C300026D0826A12F0100F03D1826A42F4007239
:101C400082629A6802F46022B2F5602F11D1227B81
:101C50007AB95A6822F020025A60A36A23F480738A
:101C6000A362A36A13F4805F03D1A36A43F0010364
:101C7000A3622046FFF728FB23686FF012021A6068
:101C800023685A6812F0800F34D01A6812F0040FDB
:101C900030D0A26A12F0100F03D1A26A42F40052AF
:101CA000A2629A6802F4E042B2F5E04F0BD05A68A3
:101CB00012F4806F17D19A6802F46022B2F5602F97
:101CC00011D1227B7AB95A6822F080025A60A36A45
:101CD00023F48053A362A36A13F4807F03D1A36A21
:101CE00043F00103A362204600F030FA23686FF04E
:101CF0000C021A6023685A6812F0400F0ED01B685D
:101D000013F0010F0AD0A36A43F48033A362204684
:101D1000FFF782FF23686FF001021A6010BD00BF59
:101D200070B483B00023019390F82430012B00F0AD
:101D30008880012380F824304B68062B0ED8066873
:101D4000756B03EB8303053B1F249C4025EA0404C9
:101D50000A6802FA03F3234373631EE00C2B0ED8C8
:101D600005682A6B03EB8303233B1F249C4022EA74
:101D700004040A6802FA03F323432B630DE00568A9
:101D8000EA6A03EB8303413B1F249C4022EA0404DC
:101D90000A6802FA03F32343EB620B68092B0ED99E
:101DA0000668F56803EB43031E3B07249C4025EAC5
:101DB00004048A6802FA03F32343F3600CE0066824
:101DC000356903EB430307249C4025EA04048A6831
:101DD00002FA03F3234333610B68103B012B26D82F
:101DE00003681A4A93421CD19A6812F4000F20D15A
:101DF0009A6842F400029A600B68102B1BD1144BB6
:101E00001B68144AA2FB03239B0C03EB83035A00B9
:101E1000019202E0019B013B0193019B002BF9D150
:101E20000AE0836A43F020038362012304E0002375
:101E300002E0002300E00023002280F8242018465E
:101E400000E0022003B070BC704700BF00240140D6
:101E50001C00002083DE1B4330B583B000230193B8
:101E600003689A6812F0010F34D19A6842F00102B7
:101E70009A601A4B1B681A4AA2FB03239B0C01931E
:101E800002E0019B013B0193019B002BF9D1044629
:101E9000FFF7A4FE054616E0FFF7A0FE401B022850
:101EA00011D923689B6813F0010F0CD1A36A43F08A
:101EB0001003A362E36A43F00103E362002384F8A2
:101EC0002430012007E023689B6813F0010FE3D062
:101ED000002000E0002003B030BD00BF1C00002047
:101EE00083DE1B4390F82430012B76D010B50446D6
:101EF000012380F82430FFF7AFFF0346002868D1A4
:101F0000A26A22F4706222F0010242F48072A2629C
:101F1000226833498A4205D1A1F58061496811F4EC
:101F2000702F0ED1A16A21F48011A162516811F4C1
:101F3000806F1CD0A16A21F4405141F48051A1620C
:101F400015E0A16A41F48011A16226498A4203D0BA
:101F500001F580618A420AD12249496811F4806FF3
:101F600005D0A16A21F4405141F48051A162A16AD7
:101F700011F4805F04D0E16A21F00601E16201E022
:101F80000021E162002184F824106FF00201116049
:101F900021684A6842F020024A602268916801F490
:101FA0006021B1F5602F0ED10D498A4205D1A1F50E
:101FB0008061496811F4702F05D1916841F4A00146
:101FC0009160184610BD916841F4801191601846E7
:101FD00010BD002284F8242010BD0220704700BFED
:101FE000002801400024014038B503689A6812F0C7
:101FF000010F23D004469A6822F001029A60FFF78D
:10200000EDFD054613E0FFF7E9FD401B02280ED960
:1020100023689B6813F0010F09D0A36A43F01003F3
:10202000A362E36A43F00103E362012038BD236841
:102030009B6813F0010FE6D1002038BD002038BDA9
:1020400000287DD038B50446836A23B9C36280F87E
:102050002430FEF73DFF2046FFF7C6FFA36A13F0CA
:10206000100F67D1002865D1A36A23F4885323F0A9
:10207000020343F00203A3626268E3691343217B16
:1020800043EA4103A268B2F5807F04D0012A05D15A
:102090004FF4807503E04FF4807500E00025227D49
:1020A000012A0FD131B9A269013A45EA423242F41C
:1020B000006507E0A26A42F02002A262E26A42F0F2
:1020C0000102E26221684A6822F469422A434A60B6
:1020D00021688D681B4A2A401A438A60A268B2F5BB
:1020E000807F01D0012A03D12269013A110500E065
:1020F00000212568EA6A22F470020A43EA62226833
:102100009168114A0A40934208D10023E362A36A0E
:1021100023F0030343F00103A36238BDA36A23F055
:10212000120343F01003A362E36A43F00103E36286
:10213000012038BDA36A43F01003A362012038BD1B
:1021400001207047FDF7E1FFFE0E1FFF704700BF43
:10215000074AD36823F4E0631B041B0C000200F45D
:10216000E060184340F0BF6040F40030D06070473A
:1021700000ED00E030B4164BDB68C3F30223C3F17B
:102180000704042C28BF04241D1D062D01D9DD1EC3
:1021900000E00025012303FA04F4013C2140A9409A
:1021A000AB40013B1A400A43002808DB1201D2B2BF
:1021B00000F1604000F5614080F8002305E000F088
:1021C0000F001201D2B2034B1A5430BC704700BF4B
:1021D00000ED00E014ED00E0002808DB420900F00B
:1021E0001F00012303FA00F0014B43F8220070475F
:1021F00000E100E00138B0F1807F0AD2064B586060
:10220000F021064A82F823100020986007221A6005
:1022100070470120704700BF10E000E000ED00E0D3
:1022200090F82130022B06D004238363002380F82A
:102230002030012070470268136823F00E031360FA
:102240000268136823F001031360C16B036C012261
:1022500002FA03F34B6080F82120002380F820303D
:102260001846704708B590F82130022B03D004239C
:102270008363012008BD0268136823F00E03136016
:102280000268136823F0010313600368194A93423C
:1022900011D01432934210D0143293420FD0143222
:1022A00093420FD0143293420FD0143293420FD185
:1022B0004FF480120EE001220CE010220AE04FF4ED
:1022C000807207E04FF4805204E04FF4803201E066
:1022D0004FF08072084B5A60012380F821300023B0
:1022E00080F82030436B13B19847002008BD0020D0
:1022F00008BD00BF0800024000000240F0B583B0F6
:1023000000263446D4E00122A24013409A4240F015
:10231000CE804D68122D2DD00BD8022D27D003D89A
:102320005DB3012D1ED035E0032D30D0112D1BD013
:1023300030E0634FBD4220D008D8A7F58017BD42DA
:102340001BD007F58037BD4224D116E05D4FBD425A
:1023500013D007F58037BD420FD0A7F58017BD42D7
:1023600018D10AE0CE6815E0CE68043612E0CE68D7
:1023700008360FE0CE680C360CE08D684DB1012DAB
:1023800002D10261082605E04261082602E000262B
:1023900000E00426FF2B01D8864601E000F1040E80
:1023A000FF2B01D8A20002E0A4F108029200DEF89F
:1023B00000700F25954027EA050506FA02F22A4328
:1023C000CEF800204A6812F0805F70D03E4A9569CE
:1023D00045F001059561926902F001020192019AAE
:1023E000A708BD1C394A52F8255004F00302920098
:1023F0004FF00F0E0EFA02FE25EA0E0E344DA842E3
:102400000DD005F58065A8420BD005F58065A84282
:1024100009D005F58065A84207D1032506E000250F
:1024200004E0012502E0022500E0042505FA02F29D
:102430004EEA02020237254D45F827204A6812F479
:10244000803F05D005F580652A681A432A6004E0BC
:10245000204D2A6822EA03022A604A6812F4003FEB
:1024600004D01C4D6A681A436A6004E0194D6A681A
:1024700022EA03026A604A6812F4801F04D0154DF4
:10248000AA681A43AA6004E0124DAA6822EA03026D
:10249000AA604A6812F4001F04D00E4DEA68134384
:1024A000EB6004E00B4DEA6822EA0303EB600134C1
:1024B0000B6833FA04F27FF426AF03B0F0BD00BF1F
:1024C0000000211000003110001002400000014007
:1024D00000080140000401400AB10161704709048D
:1024E0000161704703685A6912F4806F11D06FF46C
:1024F00080625A6100230363202280F83D2080F827
:102500003E30026C42F00402026480F83C3001204C
:1025100070470020704700BFF8B506460C461746C6
:102520001D4618E0B5F1FF3F15D0FFF757FB069B9E
:10253000C01A854200D375B900233363202286F880
:102540003D2086F83E30326C42F02002326486F83C
:102550003C300120F8BDC4F30743012B08D1336898
:102560005B6924EA03039BB2B3FA83F35B0907E0D8
:1025700033689B6924EA03039BB2B3FA83F35B09D4
:10258000BB42CFD00020F8BDF8B504460D46164634
:102590001F4633E023685A6912F4806F16D01A6818
:1025A00042F400721A6023686FF480625A6100235B
:1025B0002363202284F83D2084F83E30226C42F0D0
:1025C0000402226484F83C300120F8BDB6F1FF3FDC
:1025D00014D0FFF703FBC01B864200D376B900235B
:1025E0002363202284F83D2084F83E30226C42F0A0
:1025F0002002226484F83C300120F8BDC5F3074373
:10260000012B08D123685B6925EA03039BB20033E1
:1026100018BF012307E023689B6925EA03039BB2E7
:10262000003318BF0123002BB4D10020F8BD00BF38
:10263000F0B583B004460F4615461E46C36A082B04
:1026400004D0012B02D013F5803F05D12268136816
:1026500043F48073136007E0036B122B04D102680C
:10266000136843F48073136000962B4600224FF0EA
:1026700001112046FFF750FF48B123681B6813F48F
:10268000807F28D04FF400732364032326E023695E
:10269000B3F5804F04D1236807F0FE071F6110E0F7
:1026A0002268FB1103F0060343F0F0031361334685
:1026B0002A460C492046FFF767FF70B92368FFB22E
:1026C0001F6133462A4608492046FFF75DFF03464F
:1026D00020B1012302E0032300E00123184603B0E8
:1026E000F0BD00BF08000100020001002DE9F0412B
:1026F00084B004460D4616461F46C26A01680B6840
:1027000043F480630B60082A04D0012A02D012F53A
:10271000803F05D12268136843F48073136007E09B
:10272000036B112B04D10268136843F480731360A8
:102730000097334600224FF001112046FFF7ECFED0
:1027400048B123681B6813F4807F54D04FF40073A2
:102750002364032356E02369B3F5804F05D1236832
:1027600045F00105EDB21D613BE023684FEAE51835
:1027700008F0060848F0F0021A613B463246234949
:102780002046FFF701FF002837D12368EDB21D6115
:102790003B4632461E492046FFF7F6FE78BB002234
:1027A0000392236859690391996903910399196800
:1027B00041F480711960009733464FF001112046B3
:1027C000FFF7AAFE48B123681B6813F4807F18D076
:1027D0004FF400732364032314E0226848F0F103EC
:1027E00013613B4632460A492046FFF7CDFE0346B9
:1027F00040B1012306E0032304E0012302E00123AA
:1028000000E00323184604B0BDE8F0810800010091
:102810000200010070B504460D4616461BE0204636
:10282000FFF760FEF0B9B5F1FF3F14D0FFF7D6F91E
:10283000801B854200D375B900232363202284F8CE
:102840003D2084F83E30226C42F02002226484F85D
:102850003C30012070BD23685B6913F0800FDED02F
:10286000002070BD012070BD2DE9F04184B0044608
:10287000884616461F460B9D0268136843F4807312
:10288000136000950A9B00224FF00111FFF744FEF0
:1028900048B123681B6813F4807F47D04FF400735E
:1028A0002364032349E0226808F0FE0313612B46EA
:1028B0000A9A24492046FFF767FE002838D10023F2
:1028C000039323685A6903929B690393039B2A46E7
:1028D0000A992046FFF79EFF034648B1236C042B5C
:1028E00028D12268136843F400731360012324E0A5
:1028F000012F03D12268F6B216611EE02368320A66
:102900001A612A460A992046FFF784FF034648B118
:10291000236C042B10D12268136843F400731360F6
:1029200001230AE02268F6B2166106E0032304E000
:10293000012302E0012300E00123184604B0BDE8B2
:10294000F08100BF0200010070B504460D46164636
:102950001BE02046FFF7C6FDF0B9B5F1FF3F14D0EC
:10296000FFF73CF9801B854200D375B90023236330
:10297000202284F83D2084F83E30226C42F0200270
:10298000226484F83C30012070BD23685B6913F039
:10299000040FDED0002070BD012070BD70B505466B
:1029A0000C46164628E05A6912F0100F0FD06FF04F
:1029B00010025A6100232B63202285F83D2085F800
:1029C0003E302A6C2A6485F83C30012070BDFFF748
:1029D00005F9801BA04200D874B900232B63202284
:1029E00085F83D2085F83E302A6C42F020022A64AA
:1029F00085F83C30012070BD2B685A6912F0400FF9
:102A0000D1D0002070BD00BF002800F0C980F8B50B
:102A1000044690F83D3013F0FF0F04D1002380F8F6
:102A20003C30FEF747FB242384F83D3022681368CE
:102A300023F0010313602268136843F4004313601A
:102A40002268136823F40043136000F0E7FE626815
:102A5000554B9A4205D8554B98428CBF0023012311
:102A600004E0534B98428CBF00230123002B40F01D
:102A70009980504BA3FB00239B0C21684A6822F0ED
:102A80003F021A434A6025682A6A22F03F026668BC
:102A900045498E4201D8013308E04FF4967101FB9D
:102AA00003F34549A1FB03139B09013313432B6235
:102AB0002568E96921F44F4121F0FF0166683A4B2E
:102AC0009E420AD8431E7000B3FBF0F00130C0F301
:102AD0000B00042838BF042035E0A3685BB9421E10
:102AE00006EB4607B2FBF7F20132C2F30B02B2FA71
:102AF00082F252090CE0421E06EB860707EB8707BD
:102B0000B2FBF7F20132C2F30B02B2FA82F25209BF
:102B1000C2B953B9421E06EB4600B2FBF0F00130D9
:102B2000C0F30B0343F400400DE0421E06EB8606A3
:102B300006EB8606B2FBF6F30133C3F30B0343F453
:102B4000404000E001200843E86121680B6823F061
:102B5000C002E069236A034313430B6021688B685A
:102B600023F4034222F0FF022069E3680343134386
:102B70008B602168CB6823F0FF026069A36903437F
:102B80001343CB602268136843F0010313600020F5
:102B90002064202384F83D30206384F83E00F8BD93
:102BA000012070470120F8BDA08601007F841E002F
:102BB000FF083D0083DE1B43D34D62102DE9F04139
:102BC00084B004460D4690461F46FFF707F894F878
:102BD0003D30DBB2202B40F0968006460090192352
:102BE000012250492046FFF797FC002840F08D80D5
:102BF00094F83C30012B00F08A80012384F83C30AB
:102C000023681A6812F0010F03D11A6842F001021A
:102C10001A602268136823F400631360212384F888
:102C20003D30102384F83E3000232364C4F8248010
:102C30006785638D23853C4BE36233460A9A2946B8
:102C40002046FFF7F5FC0546002862D100230393D8
:102C500023685A6903929B690393039B42E03246BF
:102C60000A992046FFF7D6FD48B1236C042B52D1B8
:102C70002268136843F40073136001254EE0236853
:102C8000626A12781A61616A4B1C6362638D9BB23F
:102C9000013B9BB26385238D013B9BB22385226858
:102CA000506910F0040F0DD063B14B781361636A63
:102CB00001336362638D9BB2013B9BB26385238DBD
:102CC000013B238532460A992046FFF73DFE48B175
:102CD000236C042B21D12268136843F40073136022
:102CE00001251BE0238D002BB9D12268136843F422
:102CF00000731360202384F83D30002384F83E30B5
:102D000084F83C300AE0022508E0022506E00225AE
:102D100004E0012502E0012500E00125284604B079
:102D2000BDE8F081020010000000FFFF2DE9F04136
:102D300088B004460D4690461F4600230793FEF7D1
:102D40004DFF94F83D30DBB2202B40F078810646F1
:102D50000090192301229A492046FFF7DDFB002845
:102D600040F06F8194F83C30012B00F06C8101231E
:102D700084F83C3023681A6812F0010F03D11A68F6
:102D800042F001021A602268136823F400631360A2
:102D9000222384F83D30102384F83E30002323643E
:102DA000C4F824806785638D2385864BE3623346B0
:102DB0000E9A29462046FFF799FC0546002840F068
:102DC0004481238D5BB9039323685A6903929A69FE
:102DD0000392039A1A6842F400721A6022E1012BEE
:102DE00013D12268136823F48063136072B6002342
:102DF000049323685A6904929A690492049A1A689F
:102E000042F400721A6062B60CE1022B13D1226800
:102E1000136843F40063136072B6002305932368BC
:102E20005A6905929A690592059A1A6822F4806295
:102E30001A6062B6F6E02268136843F48063136098
:102E40000023069323685A6906929B690693069BA2
:102E5000E8E0032B00F2BE80012B17D132460E9919
:102E60002046FFF79BFD002840F0F180636A22684E
:102E700012691A70636A01336362238D013B2385F3
:102E8000638D9BB2013B9BB26385CBE0022B2FD1BC
:102E900000960E9B00224C492046FFF73DFB002880
:102EA00040F0D78072B62268136843F40073136051
:102EB000636A226812691A70636A01336362238D40
:102EC000013B2385638D9BB2013B9BB2638562B658
:102ED000636A226812691A70636A01336362238D20
:102EE000013B2385638D9BB2013B9BB2638599E0D7
:102EF00000960E9B002234492046FFF70DFB002868
:102F000040F0A9802268136823F48063136072B6CE
:102F1000636A226812691A70636A01336362238DDF
:102F2000013B2385638D9BB2013B9BB26385274B9D
:102F30001B68DB08264AA2FB03231B0A03EB83035F
:102F4000C3EBC3030793079B013B0793079B73B92D
:102F50002363202284F83D2084F83E30226C42F026
:102F60002002226462B684F83C30012576E02368B2
:102F70005A6912F0040FE6D01A6842F400721A601F
:102F8000636A226812691A70636A01336362238D6F
:102F9000013B2385638D9BB2013B9BB2638562B687
:102FA000636A226812691A70636A01336362238D4F
:102FB000013B2385638D9BB2013B9BB2638531E06E
:102FC000020010000000FFFF040001001C000020B0
:102FD00089B5F81432460E992046FFF7DFFC002829
:102FE0003BD1636A226812691A70626A531C636279
:102FF000238D013B2385638D9BB2013B9BB263858F
:103000002368596911F0040F0CD01B695370636A6F
:1030100001336362238D013B2385638D9BB2013BAA
:103020009BB26385238D002B7FF413AF202384F89C
:103030003D30002384F83E3084F83C300EE0022519
:103040000CE002250AE0022508E0012506E0012542
:1030500004E0012502E0012500E00125284608B032
:10306000BDE8F0812DE9F04182B004460E461746D6
:103070009846FEF7B3FD94F83D30DBB2202B40F0CC
:10308000938005460090192301224F492046FFF7FF
:1030900043FA002840F08A8094F83C30012B00F07D
:1030A0008780012384F83C3023681A6812F0010FEE
:1030B00003D11A6842F001021A602268136823F4EF
:1030C00000631360212384F83D30402384F83E30B0
:1030D00000232364089B6362BDF824306385638DFD
:1030E00023853A4BE36201950A9B009343463A4697
:1030F00031462046FFF7B8FB002833D05AE02A4675
:103100000A992046FFF786FB48B1236C042B53D164
:103110002268136843F40073136001234FE02368AF
:10312000626A12781A61616A4B1C6362228D013AED
:1031300092B22285638D9BB2013B9BB2638523686B
:10314000586910F0040F0DD062B14A781A61636AB1
:1031500001336362238D013B2385638D9BB2013B69
:103160009BB26385238D002BC9D12A460A9920463C
:10317000FFF7EAFB034648B1236C042B1ED12268FB
:10318000136843F400731360012318E021680A6890
:1031900042F400720A60202284F83D20002284F864
:1031A0003E2084F83C200AE0022308E0022306E0E7
:1031B000022304E0012302E0012300E0012318467A
:1031C00002B0BDE8F08100BF020010000000FFFF68
:1031D00082B0084B1B68084AA2FB03235B0A00FB72
:1031E00003F0019000BF019B5A1E0192002BF9D100
:1031F00002B070471C000020D34D6210002800F080
:10320000EC8170B582B00446036813F0010F6BD0F7
:10321000A84B5B6803F00C03042B0AD0A54B5B683A
:1032200003F00C03082B0DD1A24B5B6813F4803F15
:1032300008D0A04B1B6813F4003F55D06368002BE7
:1032400052D1CCE16368B3F5803F05D1994A136848
:1032500043F48033136026E063B903F1804303F540
:1032600004331A6822F480321A601A6822F4802229
:103270001A6018E0B3F5A02F0CD103F18043A3F539
:103280003C331A6842F480221A601A6842F4803291
:103290001A6008E0874B1A6822F480321A601A68B4
:1032A00022F480221A6063687BB1FEF797FC054622
:1032B00005E0FEF793FC401B642800F292817D4BF1
:1032C0001B6813F4003FF4D00EE0FEF787FC0546C0
:1032D00005E0FEF783FC401B642800F28481754BF7
:1032E0001B6813F4003FF4D1236813F0020F50D091
:1032F000704B5B6813F00C0F0AD06E4B5B6803F0E9
:103300000C03082B16D16B4B5B6813F4803F11D173
:10331000684B1B6813F0020F03D02369012B40F0A8
:103320006481644A136823F0F803616943EAC103C6
:1033300013602EE02369D3B101225F4B1A60FEF7C0
:103340004DFC054605E0FEF749FC401B022800F253
:103350004E81584B1B6813F0020FF4D0554A136886
:1033600023F0F803616943EAC103136011E000220E
:10337000514B1A60FEF732FC054605E0FEF72EFCC5
:10338000401B022800F235814A4B1B6813F0020FE4
:10339000F4D1236813F0080F29D0A369ABB101223F
:1033A000464B1A60FEF71AFC054605E0FEF716FCD0
:1033B000401B022800F21F813E4B5B6A13F0020F94
:1033C000F4D00120FFF704FF11E000223B4B1A600C
:1033D000FEF704FC054605E0FEF700FC401B022852
:1033E00000F20B81334B5B6A13F0020FF4D12368B8
:1033F00013F0040F00F08B802E4BDB6913F0805F1D
:103400000BD12C4BDA6942F08052DA61DB6903F0B0
:1034100080530193019B012500E00025284B1B6888
:1034200013F4807F13D1264A136843F4807313602A
:10343000FEF7D4FB064605E0FEF7D0FB801B6428B0
:1034400000F2DD801E4B1B6813F4807FF4D0E3682C
:10345000012B05D1174A136A43F00103136222E0DE
:1034600063B903F1804303F504331A6A22F00102C1
:103470001A621A6A22F004021A6214E0052B09D1BA
:103480000C4B1A6A42F004021A621A6A42F00102F4
:103490001A6208E0074B1A6A22F001021A621A6ADD
:1034A00022F004021A62E368D3B1FEF797FB0646E6
:1034B00010E000BF0010024000004242800442427F
:1034C00000700040FEF78AFB801B41F2883398426F
:1034D00000F29780544B1B6A13F0020FF2D010E0F9
:1034E000FEF77CFB064607E0FEF778FB801B41F207
:1034F0008833984200F287804B4B1B6A13F0020F0F
:10350000F2D125B1484AD36923F08053D361E369EE
:10351000002B7AD0444A526802F00C02082A4CD0A0
:10352000022B37D10022414B1A60FEF757FB0546AC
:1035300004E0FEF753FB401B022868D83A4B1B6897
:1035400013F0007FF5D1236AB3F5803F06D13649E9
:103550004B6823F40032A36813434B60324843683E
:1035600023F47411236A626A13430B4343600122FC
:103570002E4B1A60FEF732FB044604E0FEF72EFBEA
:10358000001B022845D8284B1B6813F0007FF5D09C
:10359000002047E00022254B1A60FEF71FFB04467F
:1035A00004E0FEF71BFB001B022834D81E4B1B68EF
:1035B00013F0007FF5D1002034E0012B2DD01A4B01
:1035C0005B6803F48031226A914228D103F47013BE
:1035D000626A934225D0012024E001207047012037
:1035E00020E003201EE003201CE001201AE003205D
:1035F00018E0032016E0032014E0032012E003206B
:1036000010E003200EE003200CE000200AE003207D
:1036100008E0032006E0032004E0012002E001208E
:1036200000E0002002B070BD001002406000424285
:1036300030B486B0164D02AC28686968AA68EB6899
:103640000FC42B8AADF80430124B5B6803F00C02F8
:10365000082A19D1C3F3834206A90A4412F8100CB0
:1036600013F4803F0CD00B4B5B68C3F340430B4417
:1036700013F8142C084B03FB00F0B0FBF2F004E04D
:10368000064B03FB00F000E0034806B030BC704777
:10369000BC4600080010024000127A0000093D00FC
:1036A000002800F09D8070B50446544B1B6803F061
:1036B00007038B420BD2514A136823F007030B43D5
:1036C0001360136803F00703994240F08B8023686E
:1036D00013F0020F17D013F0040F04D0484A5368B8
:1036E00043F4E0635360236813F0080F04D0444AA6
:1036F000536843F4605353604148436823F0F00239
:10370000A368134343600D46236813F0010F2ED0C6
:103710006268012A05D13A4B1B6813F4003F0DD1B2
:1037200062E0022A05D1364B1B6813F0007F05D1F9
:103730005CE0334B1B6813F0020F59D030494B68E3
:1037400023F0030313434B60FEF748FA064606E0F6
:10375000FEF744FA801B41F2883398424AD8284B3E
:103760005B6803F00C036268B3EB820FF0D1234B6C
:103770001B6803F007039D420AD2204A136823F016
:1037800007032B431360136803F007039D4233D1F3
:10379000236813F0040F06D019494B6823F4E06244
:1037A000E36813434B60236813F0080F07D0144AF3
:1037B000536823F46053216943EAC1035360FFF760
:1037C00037FF0F4B5B68C3F303130E4AD35CD8403B
:1037D0000D4B18600D4B1868FEF7BCF9002070BD4A
:1037E00001207047012070BD012070BD012070BD17
:1037F000012070BD032070BD012070BD002002407B
:1038000000100240A44F00081C00002020000020EF
:10381000014B1868704700BF1C00002008B5FFF777
:10382000F7FF044B5B68C3F30223034AD35CD84021
:1038300008BD00BF00100240B44F000808B5FFF7F4
:10384000E7FF044B5B68C3F3C223034AD35CD84051
:1038500008BD00BF00100240B44F000870B582B030
:103860000446036813F0010F5CD03E4BDB6913F094
:10387000805F0BD13B4BDA6942F08052DA61DB6941
:1038800003F080530193019B012600E00026364B94
:103890001B6813F4807F12D1334A136843F480739A
:1038A0001360FEF79BF9054604E0FEF797F9401B0D
:1038B00064284FD82C4B1B6813F4807FF5D0294B1C
:1038C0001B6A13F4407321D0626802F44072934281
:1038D0001CD0244A136A23F44070244901250D604A
:1038E00000250D60106213F0010F0FD0FEF776F97E
:1038F000054606E0FEF772F9401B41F28833984214
:103900002AD8184B1B6A13F0020FF3D015490B6A23
:1039100023F44072636813430B621EB1CB6923F03A
:103920008053CB61236813F0020F06D00D494B681A
:1039300023F44042A36813434B60236813F0100F35
:103940000CD008494B6823F48002E36813434B60B2
:10395000002004E0032002E0032000E0002002B089
:1039600070BD00BF001002400070004040044242A1
:1039700010B4036A046A24F001040462846924F028
:10398000F00444EA021223F00A031943826101623F
:1039900010BC704710B4036A23F0100303628469FB
:1039A000036A24F4704444EA023223F0A00343EA99
:1039B00001118261016210BC704700BF836823F06F
:1039C0007003194341F007018160704790F83D3062
:1039D000DBB2012B27D1022380F83D300268D36887
:1039E00043F00103D3600368114A93420AD0B3F154
:1039F000804F07D0A2F59432934203D002F5806243
:103A000093420AD19A6802F00702062A0DD01A687A
:103A100042F001021A60002070471A6842F0010269
:103A20001A6000207047012070470020704700BFD7
:103A3000002C01400268D36823F00103D3600368BF
:103A4000196A41F21112114208D1196A40F2444236
:103A5000114203D11A6822F001021A60012380F892
:103A60003D300020704700BF704700BF704700BF67
:103A7000704700BF704700BF10B5044603681A695D
:103A800012F0020F17D0DA6812F0020F13D06FF0A5
:103A900002021A610123037703689B6913F0030F85
:103AA00002D0FFF7E3FF04E0FFF7DEFF2046FFF759
:103AB000DFFF0023237723681A6912F0040F19D05F
:103AC000DA6812F0040F15D06FF004021A610223B5
:103AD000237723689B6913F4407F03D02046FFF7C8
:103AE000C5FF05E02046FFF7BFFF2046FFF7C0FFF8
:103AF0000023237723681A6912F0080F19D0DA68B7
:103B000012F0080F15D06FF008021A610423237712
:103B10002368DB6913F0030F03D02046FFF7A6FFED
:103B200005E02046FFF7A0FF2046FFF7A1FF002396
:103B3000237723681A6912F0100F19D0DA6812F08F
:103B4000100F15D06FF010021A6108232377236835
:103B5000DB6913F4407F03D02046FFF787FF05E0C1
:103B60002046FFF781FF2046FFF782FF00232377DF
:103B700023681A6912F0010F09D0DA6812F0010FF8
:103B800005D06FF001021A612046FDF7F5FB2368AE
:103B90001A6912F0800F09D0DA6812F0800F05D090
:103BA0006FF080021A61204600F03CF923681A6920
:103BB00012F0400F09D0DA6812F0400F05D06FF014
:103BC00040021A612046FFF755FF23681A6912F078
:103BD000200F09D0DA6812F0200F05D06FF0200214
:103BE0001A61204600F01CF910BD00BF03681A4A94
:103BF00090420AD0B0F1804F07D0A2F594329042A3
:103C000003D002F58062904203D123F070034A682A
:103C10001343114A90420AD0B0F1804F07D0A2F569
:103C20009432904203D002F58062904203D123F493
:103C30004073CA68134323F080034A691343036047
:103C40008B68C3620B688362034B984201D10B6996
:103C50000363012343617047002C014048B310B552
:103C6000044690F83D3013F0FF0F04D1002380F894
:103C70003C30FDF789FE022384F83D30211D206889
:103C8000FFF7B4FF012384F8463084F83E3084F80F
:103C90003F3084F8403084F8413084F8423084F872
:103CA000433084F8443084F8453084F83D300020B7
:103CB00010BD0120704700BF10B4846824F47F4415
:103CC00042EA0323194344EA0103836010BC7047AE
:103CD00090F83C30012B6AD010B50446012380F8DF
:103CE0003C30022380F83D300268936823F47F4320
:103CF00023F0770393600B68402B43D00AD8102B36
:103D00004AD002D8002B47D04AE0202B44D0302B99
:103D100042D045E0602B2BD002D8502B1ED03FE084
:103D2000702B03D0B3F5005F0CD039E0CB684A6844
:103D300089680068FFF7C0FF2268936843F0770343
:103D400093602DE0CB684A6889680068FFF7B4FF8C
:103D50002268936843F48043936021E0CA6849680D
:103D60000068FFF705FE50212068FFF727FE17E0E7
:103D7000CA6849680068FFF70DFE60212068FFF7F8
:103D80001DFE0DE0CA6849680068FFF7F1FD40219B
:103D90002068FFF713FE03E019462068FFF70EFEC8
:103DA000012384F83D30002084F83C0010BD02203F
:103DB000704700BF90F83C30012B2AD030B401236B
:103DC00080F83C30022380F83D3003685A689D68D3
:103DD00022F070040A6822435A6003680F4A934233
:103DE0000AD0B3F1804F07D0A2F59432934203D0AA
:103DF00002F58062934204D125F080054A6815439C
:103E00009D60012380F83D30002380F83C30184647
:103E100001E00220704730BC704700BF002C014019
:103E2000704700BF704700BF0268D36823F49073E7
:103E3000D3600268536923F001035361036B012BC4
:103E400004D10268D36823F01003D360202380F8E4
:103E50003E3000230363704790F83D30DBB2212BE6
:103E600027D18368B3F5805F0BD103694BB9036A2F
:103E700002681B88C3F308035360036A02330362BA
:103E800005E00268036A591C01621B785360C38C09
:103E90009BB2013B9BB2C3846BB90268D36823F029
:103EA0008003D3600268D36843F04003D3600020EE
:103EB0007047022070470020704700BF10B50446CD
:103EC00001680B6923F44052C36813430B61816896
:103ED00003691943436919430068C26822F4B05367
:103EE00023F00C030B43C36021684B6923F4407239
:103EF000A36913434B612268124B9A4202D1FFF728
:103F00009DFC01E0FFF78AFC216800EB800000EBDC
:103F1000800063689B00B0FBF3F00B4BA3FB002415
:103F20006409642202FB140212013232A3FB022351
:103F30005B0903F0F00202EB041403F00F032344C7
:103F40008B6010BD003801401F85EB512DE9F04119
:103F500005460F4616469846069C1EE0B4F1FF3F04
:103F60001BD02CB1FDF73AFEC8EB0000844214D2FE
:103F70002A68D36823F4D073D3602A68536923F086
:103F800001035361202385F83D3085F83E3000233E
:103F900085F83C300320BDE8F0812B681B6837EAC8
:103FA00003030CBF01230023B342D7D00020BDE898
:103FB000F08100BF68B310B5044690F83D3013F0AF
:103FC000FF0F04D1002380F83C30FDF749FD242386
:103FD00084F83D302268D36823F40053D360204630
:103FE000FFF76CFF2268136923F490431361226882
:103FF000536923F02A0353612268D36843F40053C2
:10400000D36000202064202384F83D3084F83E30C3
:1040100010BD0120704700BF2DE9F04182B01E465F
:1040200090F83D30DBB2202B55D104460D4690462A
:10403000002952D0002A52D090F83C30012B50D0A9
:10404000012380F83C3000230364212380F83D30B5
:10405000FDF7C4FD0746A4F82480A4F82680A368D1
:10406000B3F5805F04D123692BB14FF0000804E061
:104070004FF0000801E0A8460025002384F83C30FA
:1040800018E000963B46002280212046FFF75EFFA5
:1040900048BB35B9226838F8023BC3F308035360C4
:1040A00003E0236815F8012B5A60E38C9BB2013BB7
:1040B0009BB2E384E38C9BB2002BE2D100963B469B
:1040C000002240212046FFF741FF034668B9202225
:1040D00084F83D200AE0022308E0012306E00123E2
:1040E00004E0022302E0032300E00323184602B0A9
:1040F000BDE8F081704700BF08B50168CB6823F0C8
:104100004003CB60202380F83D30FFF7F3FF002011
:1041100008BD00BF704700BF08B5406A0023C385D3
:10412000C384FFF7F7FF08BD704700BF90F83E302B
:10413000DBB2222B5CD18368B3F5805F0BD10269BF
:104140004AB9826A03685B68C3F308031380836A11
:104150000233836212E0826AB3F5805F02D02BB92A
:1041600003691BB903685B68137004E003685B684C
:1041700003F07F031370836A01338362C38D9BB2A4
:10418000013B9BB2C385002B34D100B583B00268DC
:10419000D36823F02003D3600268D36823F48073CC
:1041A000D3600268536923F001035361202380F830
:1041B0003E30036B012B17D1002303630268D368E1
:1041C00023F01003D36003681A6812F0100F06D0B2
:1041D000002201921A6801925B680193019B818D14
:1041E000FFF7A2FF002007E0FDF73EF8002003E004
:1041F000022070470020704703B05DF804FB00BF49
:1042000030B583B0044602681368D068516913F072
:104210000F0509D113F0200F06D010F0200F03D0A6
:104220002046FFF783FFE2E0002D68D011F0010186
:1042300002D110F4907F62D013F0010F06D010F479
:10424000807F03D0226C42F00102226413F0040F3D
:1042500004D019B1226C42F00202226413F0020F62
:1042600004D019B1226C42F00402226413F0080F4A
:1042700007D010F0200F00D119B1226C42F00802D3
:104280002264226C002A00F0B28013F0200F05D0C7
:1042900010F0200F02D02046FFF748FF23685B692B
:1042A00003F04003226C12F0080F00D10BB320463C
:1042B000FFF7BAFD23685A6912F0400F15D05A690A
:1042C00022F040025A61A36B5BB14A4A5A63A06B69
:1042D000FDF7C8FF002800F08A80A06B436B984769
:1042E00085E02046FFF716FF81E02046FFF712FF2A
:1042F0007DE02046FFF70EFF0023236477E0216B6B
:10430000012961D113F0100F5ED010F0100F5BD0B7
:10431000002301931368019353680193019B536930
:1043200013F0400F30D0A16B0B685B689BB2002B81
:104330005DD0A08D83425AD2E3858B69202B1AD0A1
:10434000D36823F48073D3602268536923F0010398
:1043500053612268536923F040035361202384F89A
:104360003E30002323632268D36823F01003D36018
:10437000A06BFDF755FFA38DE18D89B2591A89B263
:104380002046FFF7D1FE32E0A38DE18D89B2591AA4
:1043900089B2E38D9BB253B349B3D36823F49073CE
:1043A000D3602268536923F001035361202384F80A
:1043B0003E30002323632268D36823F01003D360C8
:1043C0002046FFF7B1FE12E013F0800F06D010F088
:1043D000800F03D02046FFF73FFD08E013F0400FA9
:1043E00005D010F0400F02D02046FFF785FE03B045
:1043F00030BD00BF19410008034681628285C28535
:1044000000201864222283F83E2083F83C001968BB
:10441000CA6842F48072CA6019684A6942F00102AF
:104420004A611A68D36843F02003D360704700BF25
:1044300008B590F83E30DBB2202B0DD171B17AB1C6
:1044400090F83C30012B0DD0012380F83C30002344
:104450000363FFF7D1FF08BD022008BD012008BD9E
:10446000012008BD022008BD0C480D490D4A00235B
:1044700002E0D458C4500433C4188C42F9D30A4A19
:104480000A4C002301E013600432A242FBD3FDF783
:1044900041FA00F00FF8FCF7C1FF70470000002060
:1044A00050040020CC4F0008500400207406002067
:1044B000FEE7000070B50F4E0F4D761BB61018BF0B
:1044C000002405D0013455F8043B9847A642F9D1A1
:1044D0000A4E0B4D00F0DAF8761BB61018BF002418
:1044E00006D0013455F8043B9847A642F9D170BD77
:1044F00070BD00BFC04F0008C04F0008C84F000883
:10450000C04F000870B4840746D0541E002A41D022
:10451000CDB2034602E0621EE4B3144603F8015B29
:104520009A07F8D1032C2ED9CDB245EA05250F2CD8
:1045300045EA054519D9264603F11002103E0F2E13
:1045400042F8105C42F80C5C42F8085C42F8045CEB
:1045500002F11002F2D8A4F1100222F00F0204F0CE
:104560000F041032032C13440DD91E462246043A80
:10457000032A46F8045BFAD8221F22F00302043211
:10458000134404F003042CB1C9B21C4403F8011B0A
:10459000A342FBD170BC704714460346C2E700BF7C
:1045A000024B13B1024800F005B87047000000004C
:1045B000C1450008002301461A46184600F014B809
:1045C00038B5074D074C2C1BA41005D0013C55F8FD
:1045D000043D9847002CF9D1BDE8384000F05CB8A4
:1045E000CC4F0008C84F00082DE9F047254C06467F
:1045F00025688846D5F8484192469946C4B3606814
:104600001F2817DC411C76B104EB8003C3F888A097
:10461000D4F88851012282401543022EC4F88851F3
:10462000C3F808911ED0831C6160002044F82380E9
:10463000BDE8F087144B03B34FF4C870AFF30080AC
:104640000446D0B1D5F84831002784E888003846C0
:10465000C5F848410121C4F88871C4F88C71002E56
:10466000E1D0D1E7D4F88C311A43C4F88C21DAE7D1
:1046700005F5A674C5F84841C1E74FF0FF30BDE825
:10468000F08700BFBC4F000800000000F8B500BF75
:10469000F8BC08BC9E467047F8B500BFF8BC08BC23
:0446A0009E4670477B
:1046A4000103001E0001E40C0103001F0001B5CC4E
:1046B40001030020000185C0020304050607080960
:1046C4000A0B0C0D0E0F10100102000053797374C5
:1046D400656D20737461727475700A002E2E2E0A33
:1046E40000000000537461727420636F6E6E656322
:1046F40074696E6720746F20746865206E657477C2
:104704006F726B0A0000000041542B43495053540C
:104714004152543D22544350222C223139322E31FD
:1047240036382E322E323132222C383038300D0ABF
:104734000000000041542B4349504D4F44453D3146
:104744000D0A000041542B43495053454E440D0A71
:1047540000000000436F6E6E656374696F6E2073B2
:1047640075636365737366756C210D0A0000000040
:104774002A2A2053746172745F7570202A2A0000FB
:104784006C6564206F6666210D0A00006C65642008
:104794006F6E210D0A000000000000000000000000
:1047A4000000000000000000000000F8000000000D
:1047B400000000333000000000100C06100C06004E
:1047C400000000000000000040C07840C0784000B5
:1047D400043F04043F040400007088FC0830000017
:1047E400001820FF211E0000F008F000E01800006F
:1047F40000211C031E211E0000F008887000000028
:104804001E2123241927211010160E000000000079
:104814000000000000000000000000E01804020096
:10482400000000071820400000020418E000000007
:104834000040201807000000404080F08040400005
:104844000202010F01020200000000F0000000005B
:104854000101011F0101010000000000000000002F
:1048640080B07000000000000000000000000000A4
:10487400000101010101010100000000000000002D
:1048840000303000000000000000000080601804C8
:10489400006018060100000000E010080810E000A5
:1048A400000F102020100F00001010F8000000006E
:1048B4000020203F202000000070080808887000B5
:1048C4000030282422213000003008888848300035
:1048D4000018202020110E000000C02010F8000055
:1048E40000070424243F240000F8088888080800EE
:1048F4000019212020110E0000E010888818000003
:10490400000F112020110E0000380808C8380800D4
:104914000000003F00000000007088080888700054
:10492400001C222121221C0000E010080810E000D5
:104934000000312222110F00000000C0C00000005E
:104944000000003030000000000000800000000083
:10495400000080600000000000008040201008007B
:104964000001020408102000404040404040400044
:10497400040404040404040000081020408000001F
:104984000020100804020100007048080808F00024
:104994000000003036010000C030C828E810E000F4
:1049A4000718272423140B000000C038E00000007F
:1049B400203C23020227382008F8888888700000E9
:1049C400203F202020110E00C030080808083800BD
:1049D400071820202010080008F808080810E00034
:1049E400203F202020100F0008F88888E8081000D5
:1049F400203F20202320180008F88888E8081000A9
:104A0400203F200003000000C030080808380000E0
:104A140007182020221E020008F808000008F808E1
:104A2400203F210101213F20000808F80808000068
:104A34000020203F2020000000000808F80808009B
:104A4400C08080807F00000008F888C02818080013
:104A5400203F20012638200008F80800000000004C
:104A6400203F20202020300008F8F800F8F8080043
:104A7400203F003F003F200008F830C00008F8083D
:104A8400203F200007183F00E01008080810E0004D
:104A94000F10202020100F0008F808080808F00064
:104AA400203F210101010000E01008080810E00087
:104AB4000F18242438504F0008F88888888870001C
:104AC400203F2000030C30200070880808083800BC
:104AD4000038202121221C00180808F808081800B2
:104AE4000000203F2000000008F808000008F80833
:104AF400001F202020201F000878880000C83808E4
:104B0400000007380E010000F80800F80008F8005B
:104B1400033C0700073C03000818688080681808F5
:104B240020302C03032C30200838C800C838080073
:104B34000000203F2000000010080808C8380800C2
:104B44002038262120201800000000FE0202020066
:104B54000000007F40404000000C30C00000000016
:104B6400000000010638C00000020202FE0000003E
:104B7400004040407F0000000000040202020400E4
:104B84000000000000000000000000000000000021
:104B94008080808080808080000202040000000009
:104BA4000000000000000000000080808080000001
:104BB4000019242222223F2008F8008080000000EF
:104BC400003F112020110E000000008080800000B2
:104BD400000E112020201100000000808088F800C1
:104BE400000E112020103F200000808080800000F3
:104BF400001F222222221300008080F08888881857
:104C04000020203F20200000000080808080800061
:104C1400006B94949493600008F8008080800000F6
:104C2400203F210000203F200080989800000000D1
:104C34000020203F20200000000000809898000001
:104C440000C08080807F000008F800008080800021
:104C5400203F24022D302000000808F80000000046
:104C64000020203F20200000808080808080800001
:104C7400203F20003F20003F808000808080000093
:104C8400203F210000203F20000080808080000021
:104C9400001F202020201F00808000808000000052
:104CA40080FFA12020110E00000000808080800081
:104CB400000E112020A0FF80808080008080800072
:104CC40020203F212000010000008080808080009F
:104CD4000033242424241900008080E08080000014
:104CE4000000001F20200000808000000080800061
:104CF400001F202020103F208080800000808080C2
:104D040000010E3008060100808000800080808051
:104D14000F300C030C300F00008080008080800076
:104D24000020312E0E3120008080800000808080A1
:104D340080818E7018060100008080808080800051
:104D44000021302C2221300000000000807C02026F
:104D540000000000003F40400002027C8000000090
:104D64000040403F0000000000000000FF00000081
:104D740000000000FF000000000000000000000030
:104D8400002F000000000700070000147F147F14A8
:104D940000242A7F2A12006264081323003649552E
:104DA400225000000503000000001C224100000006
:104DB40041221C000014083E08140008083E08089C
:104DC400000000A0600000080808080800006060F7
:104DD4000000002010080402003E5149453E000036
:104DE400427F4000004261514946002141454B3118
:104DF400001814127F10002745454539003C4A49E4
:104E04004930000171090503003649494936000655
:104E14004949291E000036360000000056360000BD
:104E24000008142241000014141414140000412238
:104E3400140800020151090600324959513E007C10
:104E44001211127C007F49494936003E41414122FA
:104E5400007F4141221C007F49494941007F0909E3
:104E64000901003E4149497A007F0808087F000093
:104E7400417F4100002040413F01007F081422414E
:104E8400007F40404040007F020C027F007F040806
:104E9400107F003E4141413E007F09090906003E62
:104EA4004151215E007F091929460046494949318B
:104EB4000001017F0101003F4040403F001F2040AE
:104EC400201F003F4038403F00631408146300076C
:104ED4000870080700615149454300007F414100C3
:104EE40000552A552A55000041417F000004020163
:104EF4000204004040404040000001020400002041
:104F040054545478007F484444380038444444207E
:104F140000384444487F00385454541800087E092B
:104F240001020018A4A4A47C007F080404780000F3
:104F3400447D4000004080847D00007F10284400B0
:104F44000000417F4000007C04180478007C0804C1
:104F5400047800384444443800FC242424180018FD
:104F6400242418FC007C08040408004854545420E9
:104F740000043F444020003C4040207C001C204072
:104F8400201C003C4030403C004428102844001CB5
:104F9400A0A0A07C004464544C44141414141414AD
:104FA40000000000000000000102030406070809D5
:0C4FB4000000000001020304280000209F
:084FC000A145000835010008BD
:044FC80011010008CB
:104FCC00AE001040B081FFA1A6A83FC8D300D58089
:104FDC00D805D9F1DA12D8308D14AF000024F400C2
:104FEC00100000000100000000000000140300206D
:104FFC007C030020E40300200000000000000000FF
:10500C000000000000000000000000000000000094
:10501C000000000000000000000000000000000084
:10502C000000000000000000000000000000000074
:10503C000000000000000000000000000000000064
:10504C000000000000000000000000000000000054
:10505C000000000000000000000000000000000044
:10506C000000000000000000000000000000000034
:10507C000000000000000000000000000000000024
:10508C000000000000000000000000000000000014
:10509C0001000000000000000E33CDAB34126DE6B1
:1050AC00ECDE05000B00000000000000000000001A
:1050BC0000000000000000000000000000000000E4
:1050CC0000000000000000000000000000000000D4
:1050DC0000000000000000000000000000000000C4
:1050EC0000000000000000000000000000000000B4
:040000050800446942
:00000001FF
