:020000040800F2
:10000000005000201D430008551C0008591C000822
:100010005D1C0008611C0008651C00080000000051
:10002000000000000000000000000000691C000843
:100030006D1C000800000000711C0008751C000801
:1000400065430008654300086543000865430008F0
:1000500065430008654300086543000865430008E0
:1000600065430008654300086543000865430008D0
:1000700065430008654300086543000865430008C0
:1000800065430008654300087D1C000865430008BF
:1000900065430008654300086543000865430008A0
:1000A0006543000865430008654300086543000890
:1000B0006543000865430008654300086543000880
:1000C0006543000865430008654300086543000870
:1000D000654300088D1C00089D1C0008654300084E
:1000E0006543000865430008654300080000000000
:1000F0000000000000000000000000000000000000
:0C01000000000000000000005FF808F1A3
:1001100010B5054C237833B9044B13B10448AFF341
:1001200000800123237010BDD009002000000000D2
:10013000408D0008084B10B51BB108490848AFF3C3
:1001400000800848036803B910BD074B002BFBD0A3
:10015000BDE81040184700BF00000000D40900208F
:10016000408D0008D00900200000000081F000410F
:1001700002E000BF83F0004330B54FEA41044FEA8C
:10018000430594EA050F08BF90EA020F1FBF54EA27
:10019000000C55EA020C7FEA645C7FEA655C00F0C3
:1001A000E2804FEA5454D4EB5555B8BF6D420CDD94
:1001B0002C4480EA020281EA030382EA000083EA17
:1001C000010180EA020281EA0303362D88BF30BDB7
:1001D00011F0004F4FEA01314FF4801C4CEA11310D
:1001E00002D0404261EB410113F0004F4FEA03336C
:1001F0004CEA133302D0524263EB430394EA050FF7
:1002000000F0A780A4F10104D5F1200E0DDB02FA65
:100210000EFC22FA05F2801841F1000103FA0EF2F9
:10022000801843FA05F359410EE0A5F120050EF1BF
:10023000200E012A03FA0EFC28BF4CF0020C43FAF0
:1002400005F3C01851EBE37101F0004507D54FF0FD
:10025000000EDCF1000C7EEB00006EEB0101B1F54D
:10026000801F1BD3B1F5001F0CD349085FEA300093
:100270004FEA3C0C04F101044FEA445212F5800F9E
:1002800080F09A80BCF1004F08BF5FEA500C50F13B
:10029000000041EB045141EA050130BD5FEA4C0C1E
:1002A000404141EB010111F4801FA4F10104E9D1A7
:1002B00091F0000F04BF01460020B1FA81F308BF9E
:1002C0002033A3F10B03B3F120020CDA0C3208DD6A
:1002D00002F1140CC2F10C0201FA0CF021FA02F145
:1002E0000CE002F11402D8BFC2F1200C01FA02F1B5
:1002F00020FA0CFCDCBF41EA0C019040E41AA2BFDA
:1003000001EB0451294330BD6FEA04041F3C1CDAA1
:100310000C340EDC04F11404C4F1200220FA04F0C1
:1003200001FA02F340EA030021FA04F345EA03016B
:1003300030BDC4F10C04C4F1200220FA02F001FA2D
:1003400004F340EA0300294630BD21FA04F02946AF
:1003500030BD94F0000F83F4801306BF81F4801148
:100360000134013D4EE77FEA645C18BF7FEA655CBB
:1003700029D094EA050F08BF90EA020F05D054EA8D
:10038000000C04BF1946104630BD91EA030F1EBF92
:100390000021002030BD5FEA545C05D14000494196
:1003A00028BF41F0004130BD14F580043CBF01F589
:1003B000801130BD01F0004545F0FE4141F470016F
:1003C0004FF0000030BD7FEA645C1ABF194610464A
:1003D0007FEA655C1CBF0B46024650EA013406BF4B
:1003E00052EA033591EA030F41F4002130BD00BF0A
:1003F00090F0000F04BF0021704730B54FF48064C7
:1004000004F132044FF000054FF0000150E700BF47
:1004100090F0000F04BF0021704730B54FF48064A6
:1004200004F1320410F0004548BF40424FF0000193
:100430003EE700BF42004FEAE2014FEA31014FEAD6
:1004400002701FBF12F07F4393F07F4F81F0605125
:10045000704792F0000F14BF93F07F4F704730B594
:100460004FF4607401F0004521F0004120E700BF27
:1004700050EA010208BF704730B54FF000050AE0AE
:1004800050EA010208BF704730B511F0004502D5AF
:10049000404261EB41014FF4806404F132045FEAB1
:1004A000915C3FF4DCAE4FF003025FEADC0C18BF56
:1004B00003325FEADC0C18BF033202EBDC02C2F14C
:1004C000200300FA03FC20FA02F001FA03FE40EADE
:1004D0000E0021FA02F11444C1E600BF70B54FF0DE
:1004E000FF0C4CF4E06C1CEA11541DBF1CEA1355C0
:1004F00094EA0C0F95EA0C0F00F0DEF82C4481EA28
:10050000030621EA4C5123EA4C5350EA013518BF47
:1005100052EA033541F4801143F4801338D0A0FB34
:1005200002CE4FF00005E1FB02E506F00042E0FBE1
:1005300003E54FF00006E1FB03569CF0000F18BFE7
:100540004EF0010EA4F1FF04B6F5007F64F540748F
:1005500004D25FEA4E0E6D4146EB060642EAC62122
:1005600041EA55514FEAC52040EA5E504FEACE2E8F
:10057000B4F1FD0C88BFBCF5E06F1ED8BEF1004F92
:1005800008BF5FEA500E50F1000041EB045170BD0E
:1005900006F0004646EA010140EA020081EA030152
:1005A000B4EB5C04C2BFD4EB0C0541EA045170BD4E
:1005B00041F480114FF0000E013C00F3AB8014F1C8
:1005C000360FDEBF002001F0004170BDC4F1000411
:1005D000203C35DA0C341BDC04F11404C4F1200592
:1005E00000FA05F320FA04F001FA05F240EA0200ED
:1005F00001F0004221F0004110EBD37021FA04F623
:1006000042EB06015EEA430E08BF20EAD37070BDDC
:10061000C4F10C04C4F1200500FA04F320FA05F03B
:1006200001FA04F240EA020001F0004110EBD3703D
:1006300041F100015EEA430E08BF20EAD37070BDAD
:10064000C4F1200500FA05F24EEA020E20FA04F386
:1006500001FA05F243EA020321FA04F001F0004135
:1006600021FA04F220EA020000EBD3705EEA430EA6
:1006700008BF20EAD37070BD94F0000F0FD101F0D5
:100680000046400041EB010111F4801F08BF013C0E
:10069000F7D041EA060195F0000F18BF704703F04C
:1006A0000046520043EB030313F4801F08BF013DD3
:1006B000F7D043EA0603704794EA0C0F0CEA13558F
:1006C00018BF95EA0C0F0CD050EA410618BF52EA49
:1006D0004306D1D181EA030101F000414FF000004F
:1006E00070BD50EA410606BF1046194652EA43065D
:1006F00019D094EA0C0F02D150EA013613D195EAD1
:100700000C0F05D152EA03361CBF104619460AD118
:1007100081EA030101F0004141F0FE4141F4700122
:100720004FF0000070BD41F0FE4141F4780170BD12
:1007300070B54FF0FF0C4CF4E06C1CEA11541DBF77
:100740001CEA135594EA0C0F95EA0C0F00F0A7F879
:10075000A4EB050481EA030E52EA03354FEA0131A6
:1007600000F088804FEA03334FF0805545EA1313B9
:1007700043EA12634FEA022245EA111545EA106581
:100780004FEA00260EF000419D4208BF964244F118
:10079000FD0404F5407402D25B084FEA3202B61A37
:1007A00065EB03055B084FEA32024FF480104FF40B
:1007B000002CB6EB020E75EB030E22BFB61A75467F
:1007C00040EA0C005B084FEA3202B6EB020E75EB12
:1007D000030E22BFB61A754640EA5C005B084FEA7A
:1007E0003202B6EB020E75EB030E22BFB61A754647
:1007F00040EA9C005B084FEA3202B6EB020E75EB52
:10080000030E22BFB61A754640EADC0055EA060E12
:1008100018D04FEA051545EA16754FEA06164FEA55
:10082000C30343EA52734FEAC2025FEA1C1CC0D101
:1008300011F4801F0BD141EA00014FF000004FF08E
:10084000004CB6E711F4801F04BF01430020B4F14F
:10085000FD0C88BFBCF5E06F3FF6AFAEB5EB030C07
:1008600004BFB6EB020C5FEA500C50F1000041EB04
:10087000045170BD0EF0004E4EEA113114EB5C04D1
:10088000C2BFD4EB0C0541EA045170BD41F48011A4
:100890004FF0000E013C90E645EA060E8DE60CEAAC
:1008A000135594EA0C0F08BF95EA0C0F3FF43BAFC9
:1008B00094EA0C0F0AD150EA01347FF434AF95EA80
:1008C0000C0F7FF425AF104619462CE795EA0C0F64
:1008D00006D152EA03353FF4FDAE1046194622E731
:1008E00050EA410618BF52EA43067FF4C5AE50EA0B
:1008F00041047FF40DAF52EA43057FF4EBAE12E7FB
:100900004FEA410212F5001215D211D56FF4787337
:10091000B3EB625212D94FEAC12343F0004343EADA
:10092000505311F0004F23FA02F018BF40427047B5
:100930004FF00000704750EA013005D111F000403F
:1009400008BF6FF0004070474FF00000704700BFD5
:100950004FEA4102B2F1E04324BFB3F5001CDCF1E1
:10096000FE5C0DD901F0004C4FEAC0024CEA507019
:10097000B2F1004F40EB830008BF20F00100704748
:1009800011F0804F21D113F13872BCBF01F000404B
:10099000704741F480114FEA5252C2F11802C2F17D
:1009A000200C10FA0CF320FA02F018BF40F00100FE
:1009B0004FEAC1234FEAD32303FA0CFC40EA0C00B0
:1009C00023FA02F34FEA4303CCE77FEA625307D1ED
:1009D00050EA01331EBF4FF0FE4040F44000704724
:1009E00001F0004040F0FE4040F40000704700BFBE
:1009F00080F0004002E000BF81F0004142001FBFD4
:100A00005FEA410392EA030F7FEA226C7FEA236CDC
:100A10006AD04FEA1262D2EB1363C1BFD2184140D1
:100A200048404140B8BF5B42192B88BF704710F067
:100A3000004F40F4000020F07F4018BF404211F00A
:100A4000004F41F4000121F07F4118BF494292EA72
:100A5000030F3FD0A2F1010241FA03FC10EB0C009E
:100A6000C3F1200301FA03F100F0004302D549422B
:100A700060EB4000B0F5000F13D3B0F1807F06D3D8
:100A800040084FEA310102F10102FE2A51D2B1F1D0
:100A9000004F40EBC25008BF20F0010040EA0300C5
:100AA0007047490040EB000010F4000FA2F1010272
:100AB000EDD1B0FA80FCACF1080CB2EB0C0200FAFC
:100AC0000CF0AABF00EBC25052421843BCBFD0404A
:100AD0001843704792F0000F81F4000106BF80F4C4
:100AE00000000132013BB5E74FEA41037FEA226C87
:100AF00018BF7FEA236C21D092EA030F04D092F052
:100B0000000F08BF0846704790EA010F1CBF002085
:100B1000704712F07F4F04D1400028BF40F00040E2
:100B2000704712F100723CBF00F50000704700F002
:100B3000004343F0FE4040F4000070477FEA226229
:100B400016BF08467FEA23630146420206BF5FEAFA
:100B5000412390EA010F40F4800070474FF00003FA
:100B600004E000BF10F0004348BF40425FEA000CC1
:100B700008BF704743F0964301464FF000001CE069
:100B800050EA010208BF70474FF000030AE000BFBF
:100B900050EA010208BF704711F0004302D54042FD
:100BA00061EB41015FEA010C02BF8446014600206F
:100BB00043F0B64308BFA3F18053A3F50003BCFA8A
:100BC0008CF2083AA3EBC25310DB01FA02FC634437
:100BD00000FA02FCC2F12002BCF1004F20FA02F23E
:100BE00043EB020008BF20F00100704702F1200231
:100BF00001FA02FCC2F1200250EA4C0021FA02F292
:100C000043EB020008BF20EADC7070474FF0FF3C66
:100C100006E000BF4FF0010C02E000BF4FF0010CF6
:100C20004DF804CD4FEA40024FEA41037FEA226CBF
:100C300018BF7FEA236C11D001B052EA530C18BFE1
:100C400090EA010F58BFB2EB030088BFC81738BF46
:100C50006FEAE17018BF40F0010070477FEA226C34
:100C600002D15FEA402C05D17FEA236CE4D15FEA30
:100C7000412CE1D05DF8040B704700BF8446084664
:100C80006146FFE70FB5FFF7C9FF002848BF10F125
:100C9000000F0FBD4DF808EDFFF7F4FF0CBF01206A
:100CA00000205DF808FB00BF4DF808EDFFF7EAFFF4
:100CB00034BF012000205DF808FB00BF4DF808EDAF
:100CC000FFF7E0FF94BF012000205DF808FB00BFA4
:100CD0004DF808EDFFF7D2FF94BF012000205DF82A
:100CE00008FB00BF4DF808EDFFF7C8FF34BF012037
:100CF00000205DF808FB00BF42000ED2B2F1FE4FAB
:100D00000BD34FF09E03B3EB126209D44FEA0023DA
:100D100043F0004323FA02F070474FF000007047A1
:100D200012F1610F01D1420202D14FF0FF30704742
:100D30004FF00000704700BF844641EA000313F003
:100D4000030349D1403A23D30B6803604B684360E7
:100D50008B688360CB68C3600B6903614B69436137
:100D60008B698361CB69C3610B6A03624B6A43621F
:100D70008B6A8362CB6AC3620B6B03634B6B436307
:100D80008B6B8363CB6BC36340304031403ADBD223
:100D900030320BD30B6803604B6843608B68836011
:100DA000CB68C36010301031103AF3D20C3205D347
:100DB00051F8043B40F8043B043AF9D2043208D01D
:100DC000D2071CBF11F8013B00F8013B01D30B888F
:100DD00003806046704700BF082A13D38B07B1D049
:100DE00010F00303AED0C3F10403D21ADB071CBF1B
:100DF00011F8013B00F8013BA4D331F8023B20F885
:100E0000023B9FE7043AD9D3013A11F8013B00F8BD
:100E1000013BF9D20B7803704B7843708B78837069
:100E2000604670474FF0FF3C06E000BF4FF0010CFA
:100E300002E000BF4FF0010C4DF804CD4FEA410C29
:100E40007FEA6C5C4FEA430C18BF7FEA6C5C1BD0F6
:100E500001B050EA410C0CBF52EA430C91EA030F77
:100E600002BF90EA020F0020704710F1000F91EAD4
:100E7000030F58BF994208BF90422CBFD8176FEAA2
:100E8000E37040F0010070474FEA410C7FEA6C5C70
:100E900002D150EA013C07D14FEA430C7FEA6C5C77
:100EA000D6D152EA033CD3D05DF8040B704700BFA3
:100EB0008446104662468C461946634600E000BFF1
:100EC00001B5FFF7B7FF002848BF10F1000F01BDC3
:100ED0004DF808EDFFF7F4FF0CBF012000205DF88E
:100EE00008FB00BF4DF808EDFFF7EAFF34BF012013
:100EF00000205DF808FB00BF4DF808EDFFF7E0FFAC
:100F000094BF012000205DF808FB00BF4DF808EDFC
:100F1000FFF7CEFF94BF012000205DF808FB00BF63
:100F20004DF808EDFFF7C4FF34BF012000205DF845
:100F300008FB00BF4FEA410C7FEA6C5C02D150EA2B
:100F4000013C0AD14FEA430C7FEA6C5C02D152EAC1
:100F5000033C02D14FF0000070474FF00100704792
:100F600053B94AB9002908BF00281CBF4FF0FF3110
:100F70004FF0FF3000F082B9ADF1080C6DE904CEFE
:100F800000F006F8DDF804E0DDE9022304B0704764
:100F90002DE9F04F8C460C460546099E002B4FD19B
:100FA0008A4217466BD9B2FA82FEBEF1000F0BD00F
:100FB000CEF1200520FA05F501FA0EF345EA030CFF
:100FC00002FA0EF700FA0EF5390CBCFBF1F0BAB2DA
:100FD00001FB10C300FB02F84FEA154C4CEA034436
:100FE000A04509D9E41900F1FF3380F02881A0451C
:100FF00040F2258102383C44C8EB0404B4FBF1F311
:1010000001FB134C03FB02F2ACB244EA0C418A42EE
:1010100009D9C91903F1FF3480F00F818A4240F2E7
:101020000C81023B39448A1A43EA00400021002E19
:1010300063D022FA0EF2002386E80C00BDE8F08FA0
:101040008B4207D9002E56D0002186E811000846B1
:10105000BDE8F08FB3FA83F1002940F09380A342FA
:1010600002D3824200F2FE80851A64EB03039C46A1
:101070000120002E41D086E82010BDE8F08F12B983
:101080000127B7FBF2F7B7FA87FEBEF1000F36D1A2
:10109000E41B4FEA17481FFA87F90121B4FBF8F364
:1010A00008FB134409FB03F24FEA154C4CEA0444D5
:1010B000A24207D9E41903F1FF3002D2A24200F2A2
:1010C000D3800346A41AB4FBF8F008FB104809FBD0
:1010D00000F9ACB244EA0842914507D9D21900F1AF
:1010E000FF3402D2914500F2BA802046C9EB0202D9
:1010F00040EA03409BE731463046BDE8F08F07FAEF
:101100000EF7CEF1200C24FA0CF34FEA1748B3FB8C
:10111000F8FA1FFA87F908FB1A3520FA0CFC04FAD2
:101120000EF40AFB09FB4CEA040C4FEA1C4242EAAB
:1011300005439B4500FA0EF50AD9DB190AF1FF3287
:1011400080F08B809B4540F28880AAF1020A3B44E4
:10115000CBEB0303B3FBF8F008FB103300FB09F4FF
:101160001FFA8CFC4CEA03439C4207D9DB1900F1BF
:10117000FF326ED29C426CD902383B441C1B40EAC1
:101180000A418BE7C1F1200E8B4022FA0EFC4CEA9B
:10119000030C24FA0EF74FEA1C49B7FBF9FA1FFAC1
:1011A0008CF309FB1A7720FA0EF88C400AFB03F542
:1011B00048EA04044FEA144848EA0747BD4202FAE5
:1011C00001F200FA01FB09D917EB0C070AF1FF3015
:1011D00041D2BD423FD9AAF1020A67447F1BB7FB47
:1011E000F9F509FB157705FB03F3A4B244EA0747B9
:1011F000BB4208D917EB0C0705F1FF3027D2BB42E1
:1012000025D9023D674445EA0A40A0FB0289FF1A3E
:101210004F4545464C4614D329D066B3BBEB050376
:1012200067EB040707FA0EFECB40CF404EEA0303FC
:1012300086E888000021BDE8F08F2346F3E61846D3
:10124000DAE6B8EB020569EB0C040138E5E7054680
:10125000D9E7104692E78246C0E7924678E702381F
:101260003A4443E7084604E7023B3C442AE7C345C7
:10127000E7D33C46D1E73146BDE8F08F704700BF69
:1012800000B585B000230193029303930F48104AE1
:1012900002608360037303754FF46022C261436090
:1012A0000123036101F082F808B100F04BFB002339
:1012B000019301220292039301A9044800F0E6FE83
:1012C00008B100F03FFB05B05DF804FBEC0900201D
:1012D0000024014000B587B00023029303930493D8
:1012E00005930268144B9A4223D103F56C439A6923
:1012F00042F400729A619A6902F400720092009AB4
:101300009A6942F004029A619B6903F00403019315
:10131000019B012302930323039302A9074801F0D1
:10132000A3F900221146122001F0DAF8122001F090
:1013300009F907B05DF804FB0024014000080140F2
:1013400000B585B004AA02F8010D4FF6FF730093B3
:1013500001234621024801F0E7FD05B05DF804FBDA
:101360001C0A002000B583B04FF6FF7300930223E0
:1013700002464721024801F08FFE03B05DF804FBEE
:101380001C0A002008B50278437803EB022080B2E3
:10139000FFF73EF84FF03332034BFFF7C9F9FFF781
:1013A000AFFA80B208BD00BF3333F33F70B588B0E9
:1013B00000240494059406940794204B9A6942F003
:1013C00010029A619A6902F010020092009A9A69DA
:1013D00042F020029A619A6902F020020192019A79
:1013E0009A6942F004029A619A6902F00402029238
:1013F000029A9A6942F008029A619B6903F0080315
:101400000393039B0E4E22464FF40051304601F0E9
:1014100019FA4FF40053049301230593069402250F
:10142000079504A9304601F01FF904950594069428
:1014300004A9044801F018F908B070BD001002407A
:10144000001001400008014008B50A480A4B03603B
:101450000A4B436000238360C3604FF48042026103
:1014600043618361C361036201F084FC08B100F051
:1014700069FA08BD700A002000540040A0860100EF
:1014800008B50A480A4B03600A4B43600023836097
:10149000C3604FF48042026143618361C3610362B0
:1014A00001F068FC08B100F04DFA08BD1C0A0020EC
:1014B00000580040A086010010B588B000230493B6
:1014C0000593069307930368214A93421DD1214C4B
:1014D000A36943F00803A361A36903F00803009321
:1014E000009BC0230493122305930323079304A9AD
:1014F000194801F0B9F8E36943F40013E361E369C3
:1015000003F400130193019B20E0144A93421DD180
:10151000104CA36943F00803A361A36903F0080317
:101520000293029B4FF44063049312230593032319
:10153000079304A9084801F097F8E36943F480038E
:10154000E361E36903F480030393039B08B010BDD8
:101550000054004000100240000C014000580040C0
:1015600008B54FF4FA7000F0F5FC0E230E4A022184
:10157000084600F031FB03230C4A1946022000F014
:101580002BFB40F6B83000F0E5FC00F0AFFA1F236B
:10159000074A0021084600F01FFB40F6B83000F073
:1015A000D9FC00F0A3FA08BD748D0008848D0008F2
:1015B0008C8D000838B51A4C4FF47A7329221949DA
:1015C000204602F083FC4FF4FA7000F0C3FC4FF4A5
:1015D0007A730F221449204602F078FC4FF4FA7017
:1015E00000F0B8FC4FF47A730D221049204602F047
:1015F0006DFC4FF4FA7000F0ADFC0D4D4FF47A73B2
:1016000019222946204602F061FC16232A460021B1
:10161000084600F0E1FA4FF47A7000F09BFC38BD08
:10162000200B0020B08D0008DC8D0008EC8D000838
:10163000FC8D000810B582B002AC002324F8043DF4
:10164000C82000F087FC2020FFF77AFEC82000F0B9
:1016500081FC2046FFF786FE20B901A8FFF792FE25
:10166000034B18804FF47A7000F074FC02B010BD88
:10167000CC0A002000000000D0B50446244800F049
:101680007DFCFFF76BFA234B1860FEF7D3FE06468E
:101690000F4619A3D3E90023FEF720FF00221E4BBB
:1016A000FEF71CFFFFF754F91C4B186014A3D3E995
:1016B000002330463946FEF711FF13A3D3E9002378
:1016C000FEF75AFDFFF744F9154B18600021FFF7AC
:1016D000EBFA10B10022124B1A601249104B186835
:1016E000FFF700FB10B10F4A0D4B1A60204600F0C7
:1016F000AFFDD0BDAFF300806666666666660A40E1
:10170000144551144551A4BF0CC3300CC3F06340C1
:10171000EC090020D40A00200000303FC80A002055
:10172000D00A00200000C84230B587B0264B93E8AD
:1017300003000490ADF81410090C8DF81610002366
:101740008DF81730214B93E803000290ADF80C1090
:101750001F4C21881F4802F083FE23888DF8073034
:101760001B0A8DF806301C4C2068FEF763FE02460B
:101770000B461A4802F074FE194D2068FFF7BCFAB8
:101780002870184C6423082204A9204602F09EFB0E
:10179000642301220DF10601204602F097FB642329
:1017A00001220DF10701204602F090FB642306227E
:1017B00002A9204602F08AFB642301222946204622
:1017C00002F084FB07B030BD588D00083C8E000845
:1017D000CC0A0020188E0008D00A0020288E0008AD
:1017E000C50A0020200B002010B503684C4A934224
:1017F00047D14C4B1B78312B1CD100224FF40051A8
:10180000494801F01FF8494C42F210730A22214660
:10181000474802F05BFB42F210730A22214645481A
:1018200002F054FB00F062F907232246002108462B
:1018300000F0D2F93B4B1B78302B1CD101224FF426
:101840000051394800F0FEFF3B4C42F210730B226E
:101850002146374802F03AFB42F210730B22214630
:10186000344802F033FB00F041F9082322460021FE
:10187000084600F0B1F901222A492E4802F032FD53
:1018800010BD2E4A93424AD12D4B1B78312B1DD1CE
:1018900000224FF40051244800F0D4FF234C42F2C0
:1018A00010730A222146224802F010FB42F2107304
:1018B0000A2221461F4802F009FB00F017F907230E
:1018C00022460021084600F087F923E0302B1DD185
:1018D00001224FF40051144800F0B4FF164C42F2BC
:1018E00010730B222146124802F0F0FA42F21073F4
:1018F0000B2221460F4802F0E9FA00F0F7F808231E
:1019000022460021084600F067F903E0322B01D19E
:10191000FFF70AFF01220A49054802F0E3FC10BD67
:1019200000380140C40A002000100140448E000825
:10193000200B0020DC0A0020508E000800440040EC
:10194000CE0A002072B6FEE700B595B0282200212D
:101950000DEB020002F036FD00230593069307937A
:1019600008930993019302930393049301220A922B
:101970004FF480330B930E920222119212934FF484
:10198000E01313930AA801F0EFFD08B1FFF7DAFFA7
:101990000F23059302210691002307934FF48062E1
:1019A0000892099305A802F031F808B1FFF7CAFFC1
:1019B000022301934FF40043039301A802F004F9BA
:1019C00008B1FFF7BFFF15B05DF804FB08B500F0E4
:1019D0009DFAFFF7B9FFFFF7E9FC00F0B1F900F05D
:1019E000C9F9FFF731FDFFF74BFDFFF749FC00F0A8
:1019F00075F800F07BF801220E490F4802F072FCE6
:101A000001220E490E4802F06DFC0E4800F020FC49
:101A1000FFF7A6FDFFF7CEFD00F068F80E230A4A97
:101A20000121084600F0D8F8FFF704FEFFF77CFE1E
:101A3000FAE700BFC40A0020DC0A0020CE0A00201A
:101A4000200B0020EC0900205C8E000810B584B04B
:101A500000240EE04FF48073029301230193074AA0
:101A60002244009200227821054801F0B1FC0134A3
:101A7000E4B21A2CEED904B010BD00BF0000002063
:101A8000700A002000B587B006AA02F8010D4FF4D5
:101A9000807302930123019300920022782103486E
:101AA00001F096FC07B05DF804FB00BF700A00204F
:101AB00000B587B006AA02F8010D4FF480730293B7
:101AC00001230193009240227821034801F080FC19
:101AD00007B05DF804FB00BF700A002008B5C820FD
:101AE00000F038FAFFF7B2FF08BD00BF38B5002597
:101AF00016E0A5F15000C0B2FFF7C4FF0020FFF7C9
:101B0000C1FF1020FFF7BEFF002404E00020FFF714
:101B1000CFFF0134E4B214F0800FF7D00135EDB2FD
:101B2000072DE6D938BD00BF10B504465039C8B2FC
:101B3000FFF7A8FF200940F01000FFF7A3FF04F013
:101B40000F00FFF79FFF10BDF8B507460E46203A7D
:101B5000D5B210F0800F02D00236F6B20027102B5B
:101B600022D131463846FFF7DFFF002407E004EBBF
:101B70000513174AD05CFFF79BFF0134E4B2072C32
:101B8000F5D9711CC9B23846FFF7CEFF002408E032
:101B900004EB051308330E4AD05CFFF789FF0134CC
:101BA000E4B2072CF4D9F8BD31463846FFF7BCFF44
:101BB000002409E005EB45025300064A1344185D72
:101BC000FFF776FF0134E4B2052CF3D9F8BD00BF6E
:101BD0006C8E00084C9400082DE9F04104460E4636
:101BE0001746984600250DE0434631462046FFF74C
:101BF000ABFF0834E4B2782C02D90236F6B20024E6
:101C00000135EDB27A5D002AEED1BDE8F08100BF6A
:101C100082B00E4B9A6942F001029A619A6902F011
:101C200001020092009ADA6942F08052DA61DB69BF
:101C300003F080530193019B054A536823F0E0634E
:101C400043F00073536002B0704700BF00100240C1
:101C500000000140FEE700BFFEE700BFFEE700BF57
:101C6000FEE700BFFEE700BF704700BF704700BF40
:101C7000704700BF08B500F05BF908BD08B5024821
:101C800000F082F908BD00BFEC09002008B5024849
:101C900002F010FA08BD00BFDC0A002008B50248B7
:101CA00002F008FA08BD00BF200B0020F8B50D4671
:101CB0001746002405E06E1CAFF300802870013445
:101CC0003546BC42F7DB3846F8BD00BF70B5164656
:101CD000002405E04D1C087800F0E0F801342946A6
:101CE000B442F7DB304670BD08B50B4B1B6813B927
:101CF0000A4A094B1A60084B1A68131869468B4246
:101D000006D902F031FB0C2303604FF0FF3008BD11
:101D100001490B60104608BDD80A0020A00B002026
:101D20004FF0FF30704700BF4FF400534B6000206E
:101D3000704700BF0120704700207047704700BF08
:101D400008B50A480A4B03604FF4E13343600023AF
:101D50008360C36003610C2242618361C36102F04E
:101D600083F808B1FFF7EEFD08BD00BFDC0A0020D4
:101D70000038014008B50A480A4B03604FF4E133CC
:101D8000436000238360C36003610C22426183616E
:101D9000C36102F069F808B1FFF7D4FD08BD00BFC8
:101DA000200B00200044004030B589B0002304938C
:101DB0000593069307930368344A934231D1344B19
:101DC0009A6942F480429A619A6902F480420092D0
:101DD000009A9A6942F004029A619B6903F0040335
:101DE0000193019B4FF40073049302230593032393
:101DF0000793284D04A9284600F036FC4FF4806371
:101E0000049300240594069404A9284600F02CFCB1
:101E100022462146252000F063FB252000F092FB9E
:101E200031E01D4A93422ED1194BDA6942F4003257
:101E3000DA61DA6902F400320292029A9A6942F097
:101E400004029A619B6903F004030393039B042338
:101E5000049302230593032307930E4D04A92846F8
:101E600000F002FC0823049300240594069404A9BE
:101E7000284600F0F9FB22462146262000F030FBE0
:101E8000262000F05FFB09B030BD00BF00380140E4
:101E900000100240000801400044004000B583B03B
:101EA00002A941F8040D4FF6FF730122034802F026
:101EB0000DF8019803B05DF804FB00BFDC0A0020B8
:101EC00010B504460E4B18784FF47A73B3FBF0F359
:101ED0000C4A1068B0FBF3F000F042FB58B90F2C2D
:101EE0000BD8002221464FF0FF3000F0F9FA064BE4
:101EF0001C60002010BD012010BD012010BD00BFDE
:101F0000240000201C0000202000002008B5074A03
:101F1000136843F010031360032000F0CFFA0F2082
:101F2000FFF7CEFFFFF774FE002008BD002002403F
:101F3000034A1368034909780B441360704700BFD4
:101F4000640B002024000020014B1868704700BF7C
:101F5000640B002038B50446FFF7F6FF0546B4F1E0
:101F6000FF3F02D0044B1B781C44FFF7EDFF401BE2
:101F70008442FAD838BD00BF240000200368D86C22
:101F8000704700BF704700BF10B5044603685A6829
:101F900012F0200F2AD01A6812F0020F26D0826A9F
:101FA00012F0100F03D1826A42F4007282629A68C2
:101FB00002F46022B2F5602F11D1227B7AB95A68FF
:101FC00022F020025A60A36A23F48073A362A36AFA
:101FD00013F4805F03D1A36A43F00103A362204698
:101FE000FFF74AFB23686FF012021A6023685A68F1
:101FF00012F0800F34D01A6812F0040F30D0A26AA9
:1020000012F0100F03D1A26A42F40052A2629A6841
:1020100002F4E042B2F5E04F0BD05A6812F4806F40
:1020200017D19A6802F46022B2F5602F11D1227B99
:102030007AB95A6822F080025A60A36A23F4805366
:10204000A362A36A13F4807F03D1A36A43F0010360
:10205000A362204600F030FA23686FF00C021A6089
:1020600023685A6812F0400F0ED01B6813F0010F5E
:102070000AD0A36A43F48033A3622046FFF782FFAD
:1020800023686FF001021A6010BD00BF70B483B006
:102090000023019390F82430012B00F08880012365
:1020A00080F824304B68062B0ED80668756B03EB5E
:1020B0008303053B1F249C4025EA04040A6802FAB6
:1020C00003F3234373631EE00C2B0ED805682A6BC1
:1020D00003EB8303233B1F249C4022EA04040A6889
:1020E00002FA03F323432B630DE00568EA6A03EB6E
:1020F0008303413B1F249C4022EA04040A6802FA3D
:1021000003F32343EB620B68092B0ED90668F568CD
:1021100003EB43031E3B07249C4025EA04048A6822
:1021200002FA03F32343F3600CE00668356903EB1E
:10213000430307249C4025EA04048A6802FA03F357
:10214000234333610B68103B012B26D803681A4ADE
:1021500093421CD19A6812F4000F20D19A6842F47D
:1021600000029A600B68102B1BD1144B1B68144A99
:10217000A2FB03239B0C03EB83035A00019202E0B2
:10218000019B013B0193019B002BF9D10AE0836A7B
:1021900043F020038362012304E0002302E00023D4
:1021A00000E00023002280F82420184600E00220EE
:1021B00003B070BC704700BF002401401C00002029
:1021C00083DE1B4330B583B00023019303689A6814
:1021D00012F0010F34D19A6842F001029A601A4B52
:1021E0001B681A4AA2FB03239B0C019302E0019B8C
:1021F000013B0193019B002BF9D10446FFF7A4FE9C
:10220000054616E0FFF7A0FE401B022811D92368FF
:102210009B6813F0010F0CD1A36A43F01003A36273
:10222000E36A43F00103E362002384F824300120D1
:1022300007E023689B6813F0010FE3D0002000E063
:10224000002003B030BD00BF1C00002083DE1B4314
:1022500090F82430012B76D010B50446012380F885
:102260002430FFF7AFFF0346002868D1A26A22F4AA
:10227000706222F0010242F48072A2622268334945
:102280008A4205D1A1F58061496811F4702F0ED101
:10229000A16A21F48011A162516811F4806F1CD0F1
:1022A000A16A21F4405141F48051A16215E0A16A74
:1022B00041F48011A16226498A4203D001F5806170
:1022C0008A420AD12249496811F4806F05D0A16A77
:1022D00021F4405141F48051A162A16A11F4805F60
:1022E00004D0E16A21F00601E16201E00021E1622F
:1022F000002184F824106FF00201116021684A68FF
:1023000042F020024A602268916801F46021B1F530
:10231000602F0ED10D498A4205D1A1F5806149682F
:1023200011F4702F05D1916841F4A0019160184615
:1023300010BD916841F480119160184610BD0022D3
:1023400084F8242010BD0220704700BF00280140FF
:102350000024014038B503689A6812F0010F23D0B9
:1023600004469A6822F001029A60FFF7EDFD0546E7
:1023700013E0FFF7E9FD401B02280ED923689B6894
:1023800013F0010F09D0A36A43F01003A362E36ABC
:1023900043F00103E362012038BD23689B6813F01A
:1023A000010FE6D1002038BD002038BD00287DD0C7
:1023B00038B50446836A23B9C36280F82430FEF737
:1023C00089FF2046FFF7C6FFA36A13F0100F67D1FD
:1023D000002865D1A36A23F4885323F0020343F055
:1023E0000203A3626268E3691343217B43EA41036A
:1023F000A268B2F5807F04D0012A05D14FF4807520
:1024000003E04FF4807500E00025227D012A0FD102
:1024100031B9A269013A45EA423242F4006507E067
:10242000A26A42F02002A262E26A42F00102E26283
:1024300021684A6822F469422A434A6021688D680B
:102440001B4A2A401A438A60A268B2F5807F01D0F5
:10245000012A03D12269013A110500E00021256813
:10246000EA6A22F470020A43EA6222689168114A19
:102470000A40934208D10023E362A36A23F00303D6
:1024800043F00103A36238BDA36A23F0120343F0B3
:102490001003A362E36A43F00103E362012038BD45
:1024A000A36A43F01003A362012038BD01207047E6
:1024B000FDF7E1FFFE0E1FFF704700BF074AD3681C
:1024C00023F4E0631B041B0C000200F4E0601843DB
:1024D00040F0BF6040F40030D060704700ED00E095
:1024E00030B4164BDB68C3F30223C3F10704042C9A
:1024F00028BF04241D1D062D01D9DD1E00E0002586
:10250000012303FA04F4013C2140A940AB40013B04
:102510001A400A43002808DB1201D2B200F16040E1
:1025200000F5614080F8002305E000F00F00120183
:10253000D2B2034B1A5430BC704700BF00ED00E02C
:1025400014ED00E0002808DB420900F01F00012321
:1025500003FA00F0014B43F82200704700E100E06D
:102560000138B0F1807F0AD2064B5860F021064A4C
:1025700082F823100020986007221A60704701201B
:10258000704700BF10E000E000ED00E090F821305F
:10259000022B06D004238363002380F8203001201F
:1025A00070470268136823F00E0313600268136813
:1025B00023F001031360C16B036C012202FA03F3E1
:1025C0004B6080F82120002380F8203018467047A7
:1025D00008B590F82130022B03D004238363012037
:1025E00008BD0268136823F00E03136002681368C5
:1025F00023F0010313600368194A934211D0143287
:10260000934210D0143293420FD0143293420FD021
:10261000143293420FD0143293420FD14FF48012F0
:102620000EE001220CE010220AE04FF4807207E075
:102630004FF4805204E04FF4803201E04FF080729A
:10264000084B5A60012380F82130002380F82030A5
:10265000436B13B19847002008BD002008BD00BFA0
:102660000800024000000240F0B583B00026344666
:10267000D4E00122A24013409A4240F0CE804D683F
:10268000122D2DD00BD8022D27D003D85DB3012DEC
:102690001ED035E0032D30D0112D1BD030E0634F1C
:1026A000BD4220D008D8A7F58017BD421BD007F542
:1026B0008037BD4224D116E05D4FBD4213D007F5EF
:1026C0008037BD420FD0A7F58017BD4218D10AE070
:1026D000CE6815E0CE68043612E0CE6808360FE00A
:1026E000CE680C360CE08D684DB1012D02D102612F
:1026F000082605E04261082602E0002600E00426E4
:10270000FF2B01D8864601E000F1040EFF2B01D813
:10271000A20002E0A4F108029200DEF800700F258A
:10272000954027EA050506FA02F22A43CEF8002072
:102730004A6812F0805F70D03E4A956945F0010505
:102740009561926902F001020192019AA708BD1CED
:10275000394A52F8255004F0030292004FF00F0E50
:102760000EFA02FE25EA0E0E344DA8420DD005F5F4
:102770008065A8420BD005F58065A84209D005F513
:102780008065A84207D1032506E0002504E0012565
:1027900002E0022500E0042505FA02F24EEA0202F8
:1027A0000237254D45F827204A6812F4803F05D0AE
:1027B00005F580652A681A432A6004E0204D2A68DE
:1027C00022EA03022A604A6812F4003F04D01C4D3A
:1027D0006A681A436A6004E0194D6A6822EA0302D3
:1027E0006A604A6812F4801F04D0154DAA681A4323
:1027F000AA6004E0124DAA6822EA0302AA604A68AD
:1028000012F4001F04D00E4DEA681343EB6004E09D
:102810000B4DEA6822EA0303EB6001340B6833FADC
:1028200004F27FF426AF03B0F0BD00BF000021101A
:10283000000031100010024000000140000801407B
:10284000000401400AB10161704709040161704749
:1028500003685A6912F4806F11D06FF480625A6174
:1028600000230363202280F83D2080F83E30026C74
:1028700042F00402026480F83C30012070470020DE
:10288000704700BFF8B506460C4617461D4618E0CF
:10289000B5F1FF3F15D0FFF757FB069BC01A8542E5
:1028A00000D375B900233363202286F83D2086F8D3
:1028B0003E30326C42F02002326486F83C30012017
:1028C000F8BDC4F30743012B08D133685B6924EAE0
:1028D00003039BB2B3FA83F35B0907E033689B6998
:1028E00024EA03039BB2B3FA83F35B09BB42CFD064
:1028F0000020F8BDF8B504460D4616461F4633E0E5
:1029000023685A6912F4806F16D01A6842F4007274
:102910001A6023686FF480625A61002323632022C7
:1029200084F83D2084F83E30226C42F00402226498
:1029300084F83C300120F8BDB6F1FF3F14D0FFF71A
:1029400003FBC01B864200D376B9002323632022F9
:1029500084F83D2084F83E30226C42F0200222644C
:1029600084F83C300120F8BDC5F30743012B08D1A2
:1029700023685B6925EA03039BB2003318BF012378
:1029800007E023689B6925EA03039BB2003318BF65
:102990000123002BB4D10020F8BD00BFF0B583B0F7
:1029A00004460F4615461E46C36A082B04D0012B69
:1029B00002D013F5803F05D12268136843F4807379
:1029C000136007E0036B122B04D10268136843F411
:1029D0008073136000962B4600224FF001112046B1
:1029E000FFF750FF48B123681B6813F4807F28D09D
:1029F0004FF400732364032326E02369B3F5804F6B
:102A000004D1236807F0FE071F6110E02268FB1164
:102A100003F0060343F0F003136133462A460C49E2
:102A20002046FFF767FF70B92368FFB21F61334686
:102A30002A4608492046FFF75DFF034620B10123DF
:102A400002E0032300E00123184603B0F0BD00BFFD
:102A500008000100020001002DE9F04184B00446A5
:102A60000D4616461F46C26A01680B6843F4806330
:102A70000B60082A04D0012A02D012F5803F05D14C
:102A80002268136843F48073136007E0036B112B13
:102A900004D10268136843F48073136000973346CF
:102AA00000224FF001112046FFF7ECFE48B12368E9
:102AB0001B6813F4807F54D04FF400732364032306
:102AC00056E02369B3F5804F05D1236845F0010531
:102AD000EDB21D613BE023684FEAE51808F00608F7
:102AE00048F0F0021A613B46324623492046FFF780
:102AF00001FF002837D12368EDB21D613B46324605
:102B00001E492046FFF7F6FE78BB00220392236899
:102B100059690391996903910399196841F4807186
:102B20001960009733464FF001112046FFF7AAFEC7
:102B300048B123681B6813F4807F18D04FF40073EA
:102B40002364032314E0226848F0F10313613B4639
:102B500032460A492046FFF7CDFE034640B1012325
:102B600006E0032304E0012302E0012300E0032345
:102B7000184604B0BDE8F081080001000200010021
:102B800070B504460D4616461BE02046FFF760FE72
:102B9000F0B9B5F1FF3F14D0FFF7D6F9801B85429D
:102BA00000D375B900232363202284F83D2084F8E4
:102BB0003E30226C42F02002226484F83C30012036
:102BC00070BD23685B6913F0800FDED0002070BDFC
:102BD000012070BD2DE9F04184B0044688461646B8
:102BE0001F460B9D0268136843F4807313600095C1
:102BF0000A9B00224FF00111FFF744FE48B1236801
:102C00001B6813F4807F47D04FF4007323640323C1
:102C100049E0226808F0FE0313612B460A9A244912
:102C20002046FFF767FE002838D10023039323686E
:102C30005A6903929B690393039B2A460A9920468B
:102C4000FFF79EFF034648B1236C042B28D122686E
:102C5000136843F400731360012324E0012F03D1B0
:102C60002268F6B216611EE02368320A1A612A460B
:102C70000A992046FFF784FF034648B1236C042BD2
:102C800010D12268136843F40073136001230AE033
:102C90002268F6B2166106E0032304E0012302E095
:102CA000012300E00123184604B0BDE8F08100BF15
:102CB0000200010070B504460D4616461BE0204692
:102CC000FFF7C6FDF0B9B5F1FF3F14D0FFF73CF9AF
:102CD000801B854200D375B900232363202284F82A
:102CE0003D2084F83E30226C42F02002226484F8B9
:102CF0003C30012070BD23685B6913F0040FDED007
:102D0000002070BD012070BD70B505460C4616460A
:102D100028E05A6912F0100F0FD06FF010025A61BC
:102D200000232B63202285F83D2085F83E302A6C55
:102D30002A6485F83C30012070BDFFF705F9801B3F
:102D4000A04200D874B900232B63202285F83D20CF
:102D500085F83E302A6C42F020022A6485F83C3027
:102D6000012070BD2B685A6912F0400FD1D00020AD
:102D700070BD00BF002800F0C980F8B5044690F887
:102D80003D3013F0FF0F04D1002380F83C30FEF7F4
:102D900093FB242384F83D302268136823F0010359
:102DA00013602268136843F40043136022681368B9
:102DB00023F40043136000F0E7FE6268554B9A422B
:102DC00005D8554B98428CBF0023012304E0534B98
:102DD00098428CBF00230123002B40F09980504B78
:102DE000A3FB00239B0C21684A6822F03F021A4390
:102DF0004A6025682A6A22F03F02666845498E4289
:102E000001D8013308E04FF4967101FB03F3454903
:102E1000A1FB03139B09013313432B622568E96966
:102E200021F44F4121F0FF0166683A4B9E420AD8D7
:102E3000431E7000B3FBF0F00130C0F30B00042818
:102E400038BF042035E0A3685BB9421E06EB460795
:102E5000B2FBF7F20132C2F30B02B2FA82F252096C
:102E60000CE0421E06EB860707EB8707B2FBF7F282
:102E70000132C2F30B02B2FA82F25209C2B953B95B
:102E8000421E06EB4600B2FBF0F00130C0F30B032C
:102E900043F400400DE0421E06EB860606EB860674
:102EA000B2FBF6F30133C3F30B0343F4404000E0FD
:102EB00001200843E86121680B6823F0C002E06943
:102EC000236A034313430B6021688B6823F4034296
:102ED00022F0FF022069E368034313438B602168FB
:102EE000CB6823F0FF026069A36903431343CB60FF
:102EF0002268136843F0010313600020206420233C
:102F000084F83D30206384F83E00F8BD012070470E
:102F10000120F8BDA08601007F841E00FF083D004F
:102F200083DE1B43D34D62102DE9F04184B004468B
:102F30000D4690461F46FFF707F894F83D30DBB288
:102F4000202B40F09680064600901923012250491C
:102F50002046FFF797FC002840F08D8094F83C3025
:102F6000012B00F08A80012384F83C3023681A6822
:102F700012F0010F03D11A6842F001021A602268B0
:102F8000136823F400631360212384F83D30102379
:102F900084F83E3000232364C4F824806785638D61
:102FA00023853C4BE36233460A9A29462046FFF7C5
:102FB000F5FC0546002862D10023039323685A6973
:102FC00003929B690393039B42E032460A99204691
:102FD000FFF7D6FD48B1236C042B52D12268136849
:102FE00043F40073136001254EE02368626A12788F
:102FF0001A61616A4B1C6362638D9BB2013B9BB299
:103000006385238D013B9BB223852268506910F0B4
:10301000040F0DD063B14B781361636A01336362AF
:10302000638D9BB2013B9BB26385238D013B23855E
:1030300032460A992046FFF73DFE48B1236C042B27
:1030400021D12268136843F40073136001251BE04B
:10305000238D002BB9D12268136843F400731360E9
:10306000202384F83D30002384F83E3084F83C303F
:103070000AE0022508E0022506E0022504E0012519
:1030800002E0012500E00125284604B0BDE8F081FA
:10309000020010000000FFFF2DE9F04188B0044657
:1030A0000D4690461F4600230793FEF74DFF94F808
:1030B0003D30DBB2202B40F078810646009019238A
:1030C00001229A492046FFF7DDFB002840F06F817E
:1030D00094F83C30012B00F06C81012384F83C30E3
:1030E00023681A6812F0010F03D11A6842F0010236
:1030F0001A602268136823F400631360222384F8A3
:103100003D30102384F83E3000232364C4F824802B
:103110006785638D2385864BE36233460E9A294685
:103120002046FFF799FC0546002840F04481238D96
:103130005BB9039323685A6903929A690392039ACD
:103140001A6842F400721A6022E1012B13D122683E
:10315000136823F48063136072B60023049323681A
:103160005A6904929A690492049A1A6842F40072A5
:103170001A6062B60CE1022B13D12268136843F483
:103180000063136072B60023059323685A690592A1
:103190009A690592059A1A6822F480621A6062B6EA
:1031A000F6E02268136843F48063136000230693FB
:1031B00023685A6906929B690693069BE8E0032BF5
:1031C00000F2BE80012B17D132460E992046FFF740
:1031D0009BFD002840F0F180636A226812691A7032
:1031E000636A01336362238D013B2385638D9BB248
:1031F000013B9BB26385CBE0022B2FD100960E9B47
:1032000000224C492046FFF73DFB002840F0D780C4
:1032100072B62268136843F400731360636A22680D
:1032200012691A70636A01336362238D013B23853F
:10323000638D9BB2013B9BB2638562B6636A226871
:1032400012691A70636A01336362238D013B23851F
:10325000638D9BB2013B9BB2638599E000960E9B08
:10326000002234492046FFF70DFB002840F0A980DA
:103270002268136823F48063136072B6636A22685D
:1032800012691A70636A01336362238D013B2385DF
:10329000638D9BB2013B9BB26385274B1B68DB08A8
:1032A000264AA2FB03231B0A03EB8303C3EBC303DE
:1032B0000793079B013B0793079B73B92363202266
:1032C00084F83D2084F83E30226C42F020022264D3
:1032D00062B684F83C30012576E023685A6912F022
:1032E000040FE6D01A6842F400721A60636A22681A
:1032F00012691A70636A01336362238D013B23856F
:10330000638D9BB2013B9BB2638562B6636A2268A0
:1033100012691A70636A01336362238D013B23854E
:10332000638D9BB2013B9BB2638531E002001000CC
:103330000000FFFF040001001C00002089B5F81404
:1033400032460E992046FFF7DFFC00283BD1636A26
:10335000226812691A70626A531C6362238D013BF2
:103360002385638D9BB2013B9BB2638523685969BA
:1033700011F0040F0CD01B695370636A0133636250
:10338000238D013B2385638D9BB2013B9BB26385FB
:10339000238D002B7FF413AF202384F83D300023CE
:1033A00084F83E3084F83C300EE002250CE0022523
:1033B0000AE0022508E0012506E0012504E00125D8
:1033C00002E0012500E00125284608B0BDE8F081B3
:1033D0002DE9F04182B004460E4617469846FEF7A6
:1033E000B3FD94F83D30DBB2202B40F093800546CE
:1033F0000090192301224F492046FFF743FA002885
:1034000040F08A8094F83C30012B00F08780012343
:1034100084F83C3023681A6812F0010F03D11A684F
:1034200042F001021A602268136823F400631360FB
:10343000212384F83D30402384F83E300023236468
:10344000089B6362BDF824306385638D23853A4B06
:10345000E36201950A9B009343463A463146204673
:10346000FFF7B8FB002833D05AE02A460A992046D5
:10347000FFF786FB48B1236C042B53D122681368F5
:1034800043F40073136001234FE02368626A1278EB
:103490001A61616A4B1C6362228D013A92B22285E5
:1034A000638D9BB2013B9BB263852368586910F022
:1034B000040F0DD062B14A781A61636A0133636206
:1034C000238D013B2385638D9BB2013B9BB26385BA
:1034D000238D002BC9D12A460A992046FFF7EAFB23
:1034E000034648B1236C042B1ED12268136843F4B1
:1034F00000731360012318E021680A6842F4007227
:103500000A60202284F83D20002284F83E2084F8BE
:103510003C200AE0022308E0022306E0022304E044
:10352000012302E0012300E00123184602B0BDE8B8
:10353000F08100BF020010000000FFFF82B0084BC6
:103540001B68084AA2FB03235B0A00FB03F00190FF
:1035500000BF019B5A1E0192002BF9D102B07047A7
:103560001C000020D34D6210002800F0EC8170B5E3
:1035700082B00446036813F0010F6BD0A84B5B6860
:1035800003F00C03042B0AD0A54B5B6803F00C037B
:10359000082B0DD1A24B5B6813F4803F08D0A04BE1
:1035A0001B6813F4003F55D06368002B52D1CCE167
:1035B0006368B3F5803F05D1994A136843F48033BB
:1035C000136026E063B903F1804303F504331A68FE
:1035D00022F480321A601A6822F480221A6018E0FD
:1035E000B3F5A02F0CD103F18043A3F53C331A6847
:1035F00042F480221A601A6842F480321A6008E0AD
:10360000874B1A6822F480321A601A6822F48022EA
:103610001A6063687BB1FEF797FC054605E0FEF78C
:1036200093FC401B642800F292817D4B1B6813F4CD
:10363000003FF4D00EE0FEF787FC054605E0FEF7FC
:1036400083FC401B642800F28481754B1B6813F4D3
:10365000003FF4D1236813F0020F50D0704B5B6829
:1036600013F00C0F0AD06E4B5B6803F00C03082BB1
:1036700016D16B4B5B6813F4803F11D1684B1B680C
:1036800013F0020F03D02369012B40F06481644AD8
:10369000136823F0F803616943EAC10313602EE065
:1036A0002369D3B101225F4B1A60FEF74DFC05463A
:1036B00005E0FEF749FC401B022800F24E81584B02
:1036C0001B6813F0020FF4D0554A136823F0F80377
:1036D000616943EAC103136011E00022514B1A6093
:1036E000FEF732FC054605E0FEF72EFC401B0228E3
:1036F00000F235814A4B1B6813F0020FF4D12368A6
:1037000013F0080F29D0A369ABB10122464B1A6010
:10371000FEF71AFC054605E0FEF716FC401B0228E2
:1037200000F21F813E4B5B6A13F0020FF4D00120C0
:10373000FFF704FF11E000223B4B1A60FEF704FC88
:10374000054605E0FEF700FC401B022800F20B8155
:10375000334B5B6A13F0020FF4D1236813F0040FAC
:1037600000F08B802E4BDB6913F0805F0BD12C4B6C
:10377000DA6942F08052DA61DB6903F08053019329
:10378000019B012500E00025284B1B6813F4807F76
:1037900013D1264A136843F480731360FEF7D4FBF9
:1037A000064605E0FEF7D0FB801B642800F2DD80B2
:1037B0001E4B1B6813F4807FF4D0E368012B05D106
:1037C000174A136A43F00103136222E063B903F15D
:1037D000804303F504331A6A22F001021A621A6A5E
:1037E00022F004021A6214E0052B09D10C4B1A6A6C
:1037F00042F004021A621A6A42F001021A6208E0F8
:10380000074B1A6A22F001021A621A6A22F00402B5
:103810001A62E368D3B1FEF797FB064610E000BFDB
:10382000001002400000424280044242007000400A
:10383000FEF78AFB801B41F28833984200F29780A2
:10384000544B1B6A13F0020FF2D010E0FEF77CFB22
:10385000064607E0FEF778FB801B41F2883398426A
:1038600000F287804B4B1B6A13F0020FF2D125B197
:10387000484AD36923F08053D361E369002B7AD09F
:10388000444A526802F00C02082A4CD0022B37D16D
:103890000022414B1A60FEF757FB054604E0FEF795
:1038A00053FB401B022868D83A4B1B6813F0007F7B
:1038B000F5D1236AB3F5803F06D136494B6823F42E
:1038C0000032A36813434B603248436823F47411F9
:1038D000236A626A13430B43436001222E4B1A6032
:1038E000FEF732FB044604E0FEF72EFB001B022825
:1038F00045D8284B1B6813F0007FF5D0002047E027
:103900000022254B1A60FEF71FFB044604E0FEF779
:103910001BFB001B022834D81E4B1B6813F0007FD2
:10392000F5D1002034E0012B2DD01A4B5B6803F455
:103930008031226A914228D103F47013626A934263
:1039400025D0012024E001207047012020E0032041
:103950001EE003201CE001201AE0032018E00320F1
:1039600016E0032014E0032012E0032010E00320FF
:103970000EE003200CE000200AE0032008E0032012
:1039800006E0032004E0012002E0012000E0002026
:1039900002B070BD001002406000424230B486B0F8
:1039A000164D02AC28686968AA68EB680FC42B8AB8
:1039B000ADF80430124B5B6803F00C02082A19D1F1
:1039C000C3F3834206A90A4412F8100C13F4803F93
:1039D0000CD00B4B5B68C3F340430B4413F8142C1F
:1039E000084B03FB00F0B0FBF2F004E0064B03FBD6
:1039F00000F000E0034806B030BC7047608D00085E
:103A00000010024000127A0000093D00002800F07A
:103A10009D8070B50446544B1B6803F007038B422E
:103A20000BD2514A136823F007030B43136013684A
:103A300003F00703994240F08B80236813F0020FD4
:103A400017D013F0040F04D0484A536843F4E063DE
:103A50005360236813F0080F04D0444A536843F4BA
:103A6000605353604148436823F0F002A368134356
:103A700043600D46236813F0010F2ED06268012ABF
:103A800005D13A4B1B6813F4003F0DD162E0022AC6
:103A900005D1364B1B6813F0007F05D15CE0334B3A
:103AA0001B6813F0020F59D030494B6823F0030311
:103AB00013434B60FEF748FA064606E0FEF744FA69
:103AC000801B41F2883398424AD8284B5B6803F048
:103AD0000C036268B3EB820FF0D1234B1B6803F039
:103AE00007039D420AD2204A136823F007032B43A1
:103AF0001360136803F007039D4233D1236813F06A
:103B0000040F06D019494B6823F4E062E3681343BD
:103B10004B60236813F0080F07D0144A536823F44E
:103B20006053216943EAC1035360FFF737FF0F4B2E
:103B30005B68C3F303130E4AD35CD8400D4B186087
:103B40000D4B1868FEF7BCF9002070BD01207047CE
:103B5000012070BD012070BD012070BD012070BD2D
:103B6000032070BD012070BD002002400010024003
:103B7000749600081C00002020000020014B1868EB
:103B8000704700BF1C00002008B5FFF7F7FF044B8B
:103B90005B68C3F30223034AD35CD84008BD00BF6F
:103BA000001002408496000808B5FFF7E7FF044BB9
:103BB0005B68C3F3C223034AD35CD84008BD00BF8F
:103BC000001002408496000870B582B00446036875
:103BD00013F0010F5CD03E4BDB6913F0805F0BD11B
:103BE0003B4BDA6942F08052DA61DB6903F08053C3
:103BF0000193019B012600E00026364B1B6813F45D
:103C0000807F12D1334A136843F480731360FEF748
:103C10009BF9054604E0FEF797F9401B64284FD84E
:103C20002C4B1B6813F4807FF5D0294B1B6A13F4CF
:103C3000407321D0626802F4407293421CD0244A3F
:103C4000136A23F44070244901250D6000250D609E
:103C5000106213F0010F0FD0FEF776F9054606E06B
:103C6000FEF772F9401B41F2883398422AD8184B6C
:103C70001B6A13F0020FF3D015490B6A23F440724C
:103C8000636813430B621EB1CB6923F08053CB6191
:103C9000236813F0020F06D00D494B6823F440420D
:103CA000A36813434B60236813F0100F0CD008492E
:103CB0004B6823F48002E36813434B60002004E068
:103CC000032002E0032000E0002002B070BD00BF2E
:103CD0000010024000700040400442420268D36875
:103CE00023F49073D3600268536923F00103536196
:103CF000036B012B04D10268D36823F01003D36057
:103D0000202380F83E3000230363704790F83D3055
:103D1000DBB2212B27D18368B3F5805F0BD1036918
:103D20004BB9036A02681B88C3F308035360036A34
:103D30000233036205E00268036A591C01621B78C2
:103D40005360C38C9BB2013B9BB2C3846BB90268C6
:103D5000D36823F08003D3600268D36843F0400344
:103D6000D36000207047022070470020704700BFDA
:103D700010B5044601680B6923F44052C36813432D
:103D80000B61816803691943436919430068C2687C
:103D900022F4B05323F00C030B43C36021684B693A
:103DA00023F44072A36913434B612268124B9A4279
:103DB00002D1FFF7F9FE01E0FFF7E6FE216800EB14
:103DC000800000EB800063689B00B0FBF3F00B4BBE
:103DD000A3FB00246409642202FB140212013232A4
:103DE000A3FB02235B0903F0F00202EB041403F0CF
:103DF0000F0323448B6010BD003801401F85EB5139
:103E00002DE9F04105460F4616469846069C1EE0F1
:103E1000B4F1FF3F1BD02CB1FEF796F8C8EB0000C1
:103E2000844214D22A68D36823F4D073D3602A68FA
:103E3000536923F001035361202385F83D3085F851
:103E40003E30002385F83C300320BDE8F0812B682C
:103E50001B6837EA03030CBF01230023B342D7D00A
:103E60000020BDE8F08100BF68B310B5044690F8AB
:103E70003D3013F0FF0F04D1002380F83C30FDF7F4
:103E800093FF242384F83D302268D36823F4005341
:103E9000D3602046FFF76CFF2268136923F4904338
:103EA00013612268536923F02A0353612268D3689F
:103EB00043F40053D36000202064202384F83D3075
:103EC00084F83E3010BD0120704700BF2DE9F0415D
:103ED00082B01E4690F83D30DBB2202B55D104460F
:103EE0000D469046002952D0002A52D090F83C301E
:103EF000012B50D0012380F83C30002303642123A0
:103F000080F83D30FEF720F80746A4F82480A4F896
:103F10002680A368B3F5805F04D123692BB14FF0ED
:103F2000000804E04FF0000801E0A8460025002347
:103F300084F83C3018E000963B4600228021204661
:103F4000FFF75EFF48BB35B9226838F8023BC3F380
:103F50000803536003E0236815F8012B5A60E38CD3
:103F60009BB2013B9BB2E384E38C9BB2002BE2D17A
:103F700000963B46002240212046FFF741FF0346C2
:103F800068B9202284F83D200AE0022308E00123DA
:103F900006E0012304E0022302E0032300E0032300
:103FA000184602B0BDE8F081704700BF08B501684F
:103FB000CB6823F04003CB60202380F83D30FFF72F
:103FC000F3FF002008BD00BF704700BF08B5406A7E
:103FD0000023C385C384FFF7F7FF08BD704700BF08
:103FE00090F83E30DBB2222B5CD18368B3F5805F62
:103FF0000BD102694AB9826A03685B68C3F308039C
:104000001380836A0233836212E0826AB3F5805FB1
:1040100002D02BB903691BB903685B68137004E015
:1040200003685B6803F07F031370836A0133836264
:10403000C38D9BB2013B9BB2C385002B34D100B52D
:1040400083B00268D36823F02003D3600268D3688A
:1040500023F48073D3600268536923F00103536132
:10406000202380F83E30036B012B17D1002303631C
:104070000268D36823F01003D36003681A6812F053
:10408000100F06D0002201921A6801925B6801931A
:10409000019B818DFFF7A2FF002007E0FDF7A4FB45
:1040A000002003E0022070470020704703B05DF855
:1040B00004FB00BF30B583B0044602681368D068C3
:1040C000516913F00F0509D113F0200F06D010F03D
:1040D000200F03D02046FFF783FFE2E0002D68D0D9
:1040E00011F0010102D110F4907F62D013F0010FA2
:1040F00006D010F4807F03D0226C42F001022264CB
:1041000013F0040F04D019B1226C42F002022264B1
:1041100013F0020F04D019B1226C42F004022264A1
:1041200013F0080F07D010F0200F00D119B1226C46
:1041300042F008022264226C002A00F0B28013F0E0
:10414000200F05D010F0200F02D02046FFF748FFC7
:1041500023685B6903F04003226C12F0080F00D162
:104160000BB32046FFF7BAFD23685A6912F0400FDF
:1041700015D05A6922F040025A61A36B5BB14A4ADA
:104180005A63A06BFEF724FA002800F08A80A06B27
:10419000436B984785E02046FFF716FF81E02046F5
:1041A000FFF712FF7DE02046FFF70EFF0023236498
:1041B00077E0216B012961D113F0100F5ED010F070
:1041C000100F5BD000230193136801935368019390
:1041D000019B536913F0400F30D0A16B0B685B68F3
:1041E0009BB2002B5DD0A08D83425AD2E3858B69B0
:1041F000202B1AD0D36823F48073D36022685369CC
:1042000023F0010353612268536923F04003536193
:10421000202384F83E30002323632268D36823F0F0
:104220001003D360A06BFEF7B1F9A38DE18D89B2C5
:10423000591A89B22046FFF7D1FE32E0A38DE18DF5
:1042400089B2591A89B2E38D9BB253B349B3D3688B
:1042500023F49073D3602268536923F00103536100
:10426000202384F83E30002323632268D36823F0A0
:104270001003D3602046FFF7B1FE12E013F0800F69
:1042800006D010F0800F03D02046FFF73FFD08E076
:1042900013F0400F05D010F0400F02D02046FFF77A
:1042A00085FE03B030BD00BFCD3F000803468162EC
:1042B0008285C28500201864222283F83E2083F87C
:1042C0003C001968CA6842F48072CA6019684A6979
:1042D00042F001024A611A68D36843F02003D360B8
:1042E000704700BF08B590F83E30DBB2202B0DD1EF
:1042F00071B17AB190F83C30012B0DD0012380F8D8
:104300003C3000230363FFF7D1FF08BD022008BD46
:10431000012008BD012008BD022008BD0C480D4940
:104320000D4A002302E0D458C4500433C4188C4210
:10433000F9D30A4A0A4C002301E013600432A24276
:10434000FBD3FDF7FBFC00F015F8FDF73FFB7047D2
:1043500000000020D009002030990008D00900207A
:10436000A00B0020FEE70000014B1868704700BF5B
:104370005004002070B50F4E0F4D761BB61018BFBD
:10438000002405D0013455F8043B9847A642F9D1E2
:104390000A4E0B4D04F0D4FC761BB61018BF002457
:1043A00006D0013455F8043B9847A642F9D170BDB8
:1043B00070BD00BF24990008249900082C990008BA
:1043C0002499000870B4840746D0541E002A41D0B6
:1043D000CDB2034602E0621EE4B3144603F8015B6B
:1043E0009A07F8D1032C2ED9CDB245EA05250F2C1A
:1043F00045EA054519D9264603F11002103E0F2E55
:1044000042F8105C42F80C5C42F8085C42F8045C2C
:1044100002F11002F2D8A4F1100222F00F0204F00F
:104420000F041032032C13440DD91E462246043AC1
:10443000032A46F8045BFAD8221F22F00302043252
:10444000134404F003042CB1C9B21C4403F8011B4B
:10445000A342FBD170BC704714460346C2E700BFBD
:104460000FB410B5074B82B004AC54F8042B186895
:1044700023468168019400F007F802B0BDE81040BF
:1044800004B07047500400202DE9F04FC1B01C4625
:104490000891164605460A9002F0DCFE03680E9469
:1044A0001846179303F0BAFD16901DB1AB6B002BA5
:1044B00000F0BD830898B0F90C2093B2990407D49A
:1044C000416E42F4005321F40051838141669BB256
:1044D0001A0740F1E482089A1269002A00F0DF828C
:1044E00003F01A030A2B00F0E88200231A46B046B4
:1044F0000DF1C00ADFF85C94129319930B93259386
:104500002493CDF88CA01492159298F8003044466C
:10451000EBB1252B02D11AE0252B03D014F8013F73
:10452000002BF9D1C8EB04058DB1249B259A0133EA
:104530002A44072BCAF80080CAF804502592249315
:1045400000F330830AF1080A0B9B2B440B9323786A
:10455000002B00F0EA814FF0FF3B5D4600231A4636
:104560008DF86F3019460C930793637804F10108B6
:1045700008F10108A3F12000582800F24086DFE886
:1045800010F0DC053E063E06E5053E063E063E060C
:104590003E063E063E065900AA053E066600AA03F0
:1045A0003E06C603CD03CD03CD03CD03CD03CD031E
:1045B000CD03CD03CD033E063E063E063E063E0637
:1045C0003E063E063E063E063E06DD0357053E0617
:1045D00057053E063E063E063E06A2053E063E0640
:1045E000BC043E063E063E063E063E06E4043E068B
:1045F0003E0611053E063E063E063E063E063E06C9
:104600003E063E063E063E0644058D045705570508
:10461000570595048D043E063E069D043E06A804FB
:104620004A046D00B0053E06B8053E0621043E066C
:104630003E06ED050E9C236818460C932346002881
:1046400003F104030E9306DA0C9B5B420C93079B69
:1046500043F00403079398F8003089E7AB460E9ABD
:104660000027079830217823BB4514688DF8701017
:1046700002F104024FF000058DF871308DF86F7073
:1046800040F00201C0F2D18520F0800141F002012A
:10469000079154EA05010E921193AC4800F0318164
:1046A00030AE230943EA0573290904F00F020D46D1
:1046B0001C46835C06F8013D54EA0503F1D130AB9A
:1046C0009B1B0D930D9B5B45B8BF5B460993002375
:1046D000139317B1099B01330993079B13F002034E
:1046E0000F9302D0099B02330993079B13F08403B5
:1046F000109340F018810C9B099A9D1A002D40F3ED
:104700001281102D2599249A914F27DD1896504635
:104710001024BA46089E2F460A9D04E0103F102F31
:1047200000F1080016DD0132894B1031072A25916E
:10473000249280E81800F1DD23AA3146284603F0D0
:10474000D7FC002840F0F880103F102F30A82599A2
:10475000249AE8DC3D4657468246189E01326C1882
:10476000072A25942492CAF80070CAF8045000F36E
:10477000D0809DF86F700AF1080A77B1249B01344C
:1047800001330DF16F010122072B259424938AE850
:10479000060000F31E820AF1080A0F9B6BB1249BEE
:1047A000023401331CA90222072B259424938AE8A2
:1047B000060000F31A820AF1080A109B802B00F011
:1047C0002A810D9BC3EB0B07002F33DD614A102FAD
:1047D000249B0F9222DD22464FF0100B0A9D089C6D
:1047E00004E0103F102F0AF1080A16DD01331032E1
:1047F000072B259224938AE8000AF2DD23AA21469A
:10480000284603F075FC002840F09680103F102FDA
:104810000DF1C00A259A249BE8DC144601330F9A57
:104820003C44072B259424938AE8840000F3C58137
:104830000AF1080A079BDD0500F18E80249B0D9983
:1048400001330C44072B2594CAF80060CAF8041001
:10485000249300F3E0810AF1080A079B580736D534
:104860000C9B099A9D1A002D31DD102D249B384F89
:1048700022DD22461026DDF828B0089C04E0103D19
:10488000102D0AF1080A16DD013331491032072BC9
:10489000259224938AE84200F1DD23AA2146584656
:1048A00003F026FC002847D1103D102D0DF1C00A61
:1048B000259A249BE8DC144601332C44072B2594CD
:1048C0002493CAF80070CAF8045000F38D840B9B3F
:1048D0000C9A09998A42ACBF9B185B180B93002C69
:1048E00040F05781002324930DF1C00A0DE6002704
:1048F000BB458DF86F70C0F2A284079B23F0800344
:104900000793BBF1000F00F0678400240025002707
:10491000C6E623AA08990A9803F0EAFB60B99DF855
:104920006F700DF1C00A259C27E7259B23B10A98DB
:1049300023AA089903F0DCFB089B9B89590600F128
:104940000F870B9841B0BDE8F08F00BFC4960008F8
:10495000E496000890960008119B652B40F3BB80FD
:104960001498159900220023FCF7B2FA002800F0F1
:104970006781249BB049013301340122072B259420
:1049800024938AE8060000F38B860AF1080A1D9B2F
:10499000129A934203DB079BD8077FF55EAF249BF7
:1049A00016990133179A0C44072B2594CAF8002056
:1049B000CAF80410249300F331870AF1080A129B05
:1049C0005D1E002D7FF749AF9C4A102D249B0F924E
:1049D00040F3178110260A9FDDF820B005E00AF1A8
:1049E000080A103D102D40F30C8101331034072BC1
:1049F00025942493CAF80090CAF80460EFDD23AA36
:104A00005946384603F074FB002895D10DF1C00AD1
:104A1000259C249BE5E70C9B099A9F1A002F7FF7A2
:104A2000D0AE864A102F249B0F922BDD5246214692
:104A3000BA46102537460A9C089E06E0AAF1100ADD
:104A4000BAF1100F02F1080218DD01331031072B03
:104A500025912493C2F800905560EFDD23AA3146DA
:104A6000204603F045FB00287FF466AFAAF1100A48
:104A7000BAF1100F30AA2599249BE6DC3E460C467D
:104A80005746924601330F9A3C44072B25942493B2
:104A90008AE8840000F3D6840AF1080A91E60899AE
:104AA0000A9801F0F3F8002840F05A86089B9B8989
:104AB00003F01A030A2B7FF418AD0899B1F90E30F0
:104AC000002BFFF612AD234632460A9801F0A8F8F3
:104AD00041B0BDE8F08F129B249D012B04F101042D
:104AE00005F1010540F35D840123072D2594CAF8E3
:104AF00000602495CAF8043000F36E840AF1080AB5
:104B0000169A0135179B1444072D25942495CAF84D
:104B10000030CAF8042000F36D840AF1080A00236B
:104B2000149815990022FCF7D3F9129B002800F085
:104B30002A835E1E002E40F33583404B102E0F93C8
:104B400040F36984CDF834801027B046DDF828B0F2
:104B5000089E07E00AF1080AA8F11008B8F1100F42
:104B600040F3568401351034072D25942495CAF856
:104B70000090CAF80470EDDD23AA3146584603F0D0
:104B8000B7FA00287FF4D8AE0DF1C00A259C249D09
:104B9000E2E723AA08990A9803F0AAFA00283FF44A
:104BA000A1AEC9E623AA08990A9803F0A1FA002841
:104BB0007FF4C2AE0DF1C00AC6E423AA08990A9890
:104BC00003F096FA00287FF4B7AE0DF1C00A259CD9
:104BD00030E623AA08990A9803F08AFA00287FF49D
:104BE000ABAE0DF1C00A259CD7E523AA08990A9817
:104BF00003F07EFA00287FF49FAE0DF1C00A259CD9
:104C0000DBE501330F9A2C44072B259424938AE883
:104C100024007FF720AE23AA08990A9803F068FAC7
:104C200000287FF489AE259C0DF1C00A15E60A988C
:104C300002F094F93EE400BFE09600089096000868
:104C40001D9D002D40F33B85139B129A9342A8BFF4
:104C50001346002B1D460DDD249B2C440133072BEE
:104C60002594CAF80060CAF80450249300F314860F
:104C70000AF1080A139B002DA8BF5B1B002B1D46E1
:104C800040F32D83C64A102D249B0F9240F3FB84E2
:104C900022461027DDF828B0089C05E00AF1080A32
:104CA000103D102D40F3EE8401331032072B259276
:104CB0002493CAF80090CAF80470EFDD23AA2146B5
:104CC000584603F015FA00287FF436AE0DF1C00AFD
:104CD000259A249BE4E798F8003008F101042A2B78
:104CE00000F04F87A3F13000092898BF002500F29B
:104CF000E18614F8013B05EB850500EB4505A3F1C2
:104D000030000928F5D945EAE575A04632E4079B4D
:104D100043F08003079398F8003029E4A3F13000B2
:104D200000231C4618F8013B04EB840400EB440408
:104D3000A3F130000928F5D90C941BE41193AB467C
:104D4000002A40F06487079B43F010030793079BFA
:104D50009F0640F18A820E9C073424F00704D4E9B0
:104D6000002304F108011D4614460E91002A73F138
:104D70000003C0F27483BBF1000F9DF86F70C0F2A6
:104D80009482079B23F08003079354EA050338D0ED
:104D9000002D08BF0A2C39D330AE204629460A22FE
:104DA0000023FCF7DDF8303206F8012D20462946B5
:104DB00000230A22FCF7D4F804460D4654EA050302
:104DC000EBD17CE41193AB46002A40F01C87079A94
:104DD00012F0200300F0C7800E9C0027073424F057
:104DE000070303F10801BB450E91D3E900458DF897
:104DF0006F70C0F25A8222F08003079354EA0503D1
:104E0000C6D1BBF1000F00F0E881002440AE303481
:104E100006F8414D53E41193AB46002A40F0E78673
:104E2000079A12F0200375D00E9C0027073424F057
:104E3000070303F10801BB450E91D3E900458DF846
:104E40006F700BDB22F08003079354EA050306D151
:104E5000BBF1000F00F0058600240025002730AECE
:104E6000E20842EA4572E90804F007030D461446D9
:104E7000303354EA050206F8013DF1D1079AD20712
:104E80007FF51DAC302B3FF41AAC3022731E06F8B0
:104E9000012C30AAD21A0D921E4613E41193AB4690
:104EA000002A3FF454AF8DF86F1050E7079B43F092
:104EB0004003079398F80030FFF75ABB98F800308A
:104EC0006C2B00F0A184079840F010000790FFF7CA
:104ED0004FBB002A40F08F86079B9F0640F10D8351
:104EE0000E9A134604330E930B9B1168DD171A4676
:104EF0002B46C1E90023FFF708BB1193AB46002AFC
:104F000040F06286079B43F010030793079A12F064
:104F1000200389D1079911F0100200F0B0820E9899
:104F2000BBF1000F024604688DF86F3002F10402F5
:104F30004FF00005C0F2548521F08001079154EA3A
:104F400005010E9284D01F4689E71193AB46002AD3
:104F500040F03686079B43F010030793079A12F040
:104F600020037FF439AF079911F0100200F08A8115
:104F70000E98BBF1000F024604688DF86F3002F105
:104F800004024FF00005C0F2288521F0800107914E
:104F900054EA05010E921F467FF4FAAE31E700BFD6
:104FA000909600081193AB46002A40F01186079BAB
:104FB000C0489C0640F1DC800E9C073424F00703B7
:104FC00003F108020E92D3E90045079A12F0010797
:104FD00000F0398154EA05033FF489AC9DF8442080
:104FE00000278DF87120079A3023BB458DF870306B
:104FF0008DF86F7042F00203C0F2F58422F0800356
:1050000043F002030793FFF74BBB0E9911930A6815
:10501000002301201F468DF86F309B4613930B1D14
:1050200009908DF898200E930D9026AEFFF755BB92
:105030001193AB46002A40F0D685079B0E9C1D07B6
:1050400004F1070440F1148324F0070303F108027C
:105050000E921A685B6814921593159B149D23F0A9
:105060000044284621464FF0FF32934BFBF762FF86
:10507000002840F07582284621464FF0FF328E4BC3
:10508000FBF73AFF002840F06B8214981599002234
:105090000023FBF727FF002840F0A8849DF86F70DD
:1050A0000799864E21F08001854B079111990322C3
:1050B0004FF0000B09924729D8BF1E460D92CDF83C
:1050C0004CB0FFF706BB079B43F00803079398F823
:1050D0000030FFF74DBA98F8003001222B21FFF77E
:1050E00047BA079B43F02003079398F80030FFF777
:1050F0003FBA0E9AAB461668002511938DF86F5093
:10510000141D002E00F04284BBF1000FC0F2B783E3
:105110005A462946304602F0CBFB002800F0BE84F8
:10512000AB46831B0D9323EAE3730E940993CDF8EA
:105130004CB09DF86F70FFF7CCBA98F8003000299A
:105140007FF416AA01222021FFF712BA079B43F031
:105150000103079398F80030FFF70ABA1193AB46A2
:10516000002A40F04C85079B56489C063FF524AF2B
:10517000079BD90640F1B5810E9A002513460433EA
:1051800014680E9321E7013B013501361C44072DBD
:10519000CAF8006024952594CAF8043000F34581CC
:1051A0000AF1080A199A013514441FAB072D2594FA
:1051B0002495CAF80420CAF800307FF74CAB23AA24
:1051C00008990A9802F094FF00287FF4B5AB0DF11E
:1051D000C00A259CFFF741BB5F464FF0000BCDF89E
:1051E00034B030AEFFF76EBA23AA08990A9802F0DD
:1051F0007FFF00287FF4A0AB259CFFF768BB1193CD
:10520000002A40F0E984119A002A3FF48EAB002373
:1052100001211F4609918DF898208DF86F309B462B
:1052200013930D9126AEFFF758BA264807911193B4
:1052300054EA05030E924FF000077FF431AA0024D0
:105240000025FFF72DBABBF1000F8DF86F70C0F28B
:10525000348222F08003079354EA05037FF420AAE6
:10526000BBF1000F7FF451ABB6E7079BDE0640F1C0
:105270005B810E9A13461C680433E5170E93224691
:105280002B4673E5079911F0400740F06D820E9AA6
:10529000BBF1000F134614688DF86F7003F104031F
:1052A0004FF0000580F24F810E9354EA05037FF41E
:1052B0006FADABE5B0960008FFFFEF7FA496000846
:1052C000A0960008C496000823AA08990A9802F03C
:1052D0000FFF00287FF430AB259C0DF1C00A139A14
:1052E0001D9B32441746129A934249DB079AD20714
:1052F00046D412990E44F51BCB1A9D42A8BF1D46F9
:10530000002D2E460DDD249A2C440132072A2594C7
:10531000CAF80070CAF80450249200F34F830AF1CF
:10532000080A002EB4BF1D469D1B002D7FF795AACD
:105330008A4A102D249B0F927FF763AC10260A9F98
:10534000DDF820B005E00AF1080A103D102D7FF7C6
:1053500058AC01331034072B25942493CAF80090DD
:10536000CAF80460EFDD23AA5946384602F0C0FEB1
:1053700000287FF4E1AA0DF1C00A259C249BE4E7F4
:10538000249A1698013217990444072A2594CAF8DA
:105390000010CAF80400249200F3EB820AF1080A14
:1053A000A7E7079BDF073FF59FAB0123072D259458
:1053B000CAF800602495CAF804307FF7F1AE23AA3A
:1053C00008990A9802F094FE00287FF4B5AA0DF11E
:1053D000C00A259C249DE5E623AA08990A9802F0B4
:1053E00087FE00287FF4A8AA0DF1C00A259C249D01
:1053F000FFF786BB23AA08990A9802F079FE0028D5
:105400007FF49AAA0DF1C00A259C249DFFF787BB63
:105410004646DDF8348001350F9B3444072D259432
:1054200024958AE848007FF7BBAE23AA08990A981A
:1054300002F05EFE00287FF47FAA259C249D0DF1DA
:10544000C00AAFE623AA08990A9802F051FE002884
:105450007FF472AA0DF1C00A259CFFF7B2B964422D
:105460004FF02D0765EB4505BBF1000F8DF86F7010
:10547000FFF68EAC079B23F08003079388E407991F
:1054800011F0400716D00E98BBF1000F03468DF8BF
:105490006F2003F1040304884FF00005C0F2AB81D4
:1054A00021F08001079154EA05010E933FF4D0AC3E
:1054B0001746D4E40E9ABBF1000F134614688DF81A
:1054C0006F7003F104034FF00005C0F29481079A56
:1054D0000E9322F08002079254EA05027FF4BFACDB
:1054E000B6E4079B0E9A13F0400F134600F0548168
:1054F0000433148800250E9367E5079BDE060BD462
:10550000079B5D0608D50E9A136804320E92BDF80B
:105510002C201A80FEF7F9BF0E9A136804320E92FF
:105520000B9A1A60FEF7F1BF079B0E9A13F0400F1B
:1055300013463FF4A0AEB2F900400433E5170E93D2
:1055400022462B4612E4079A0E9322F0800207921D
:1055500054EA05027FF41CAC53E400BF90960008A7
:10556000149C22462046159C23462146FBF7E2FC6C
:10557000002840F0DF82119BBBF1FF3F23F02003A6
:105580000D9300F03982472B00F03881079B43F4DC
:1055900080731093159B1F1E149B0993B7BF3B4646
:1055A000002303F100472D230F93119B662B00F07E
:1055B0002682462B00F0F5800D9B21A8452B18BFB5
:1055C0005D461EA908BF0BF10105049003911DA8BB
:1055D00002213B460290099A019500910A9800F039
:1055E0005FFC119B0646672B40F02A82079BDA0777
:1055F00040F1728274190998394600220023FBF7A2
:1056000067FC002840F05581219B9C4206D930213F
:105610005A1C21921970219B9C42F9D89B1B129312
:105620000D9B472B00F03181119B652B40F31782B6
:10563000119B662B1D9B139300F02282139A1299E3
:105640008A42C0F2F081079BDB0700F14F8222EA19
:10565000E2730D92672211920F9A002A40F0EB80BC
:105660000993109B934607939DF86F70FFF731B82D
:1056700024F00704236814936368159304F1080366
:105680000E93EAE4144601330F9A2C44072B259419
:1056900024938AE824003FF717AE0AF1080A1EE6B1
:1056A00023AA08990A9802F023FD00287FF444A950
:1056B0000DF1C00A259CFFF76AB90E9AB8E5249B44
:1056C000BA49013301340122072B259424938AE837
:1056D000060000F383800AF1080A2DB9129B1BB95A
:1056E000079BD9077FF5B9A8249B16990133179A10
:1056F0000C44072B2594CAF80020CAF80410249300
:1057000000F3DC810AF1080A6D42002D40F3A98004
:10571000A74A102D0F9240F31F8122461027DDF873
:1057200028B0089C05E00AF1080A103D102D40F34E
:10573000128101331032072B25922493CAF800906E
:10574000CAF80470EFDD23AA2146584602F0D0FCC7
:1057500000287FF4F1A80DF1C00A259A249BE4E704
:105760004FF0FF30FFF7EEB80E98BBF1000F034685
:105770008DF86F2003F1040304884FF00005C0F298
:10578000BE8121F08001079154EA05010E9317466E
:105790007FF4FEAAFFF735BB0433146800250E938F
:1057A00013E421A81EA9049003911DA803210290CF
:1057B000099A3B46CDF804B000910A9800F070FBBE
:1057C0005D460646119B7419462B7FF414AF33785F
:1057D000302B00F098811D9D2C440CE723AA0899DA
:1057E0000A9802F085FC00287FF4A6A80DF1C00AF3
:1057F0001D9D259C71E70E93FFF730BBBBF1000F99
:1058000008BF4FF0010BC1E6079B08F1010843F008
:105810002003079398F80030FEF7AABE23AA089940
:105820000A9802F065FC00287FF486A80DF1C00AF2
:10583000259CFFF7C4B80993109B2D2707938DF87B
:105840006F704FF0000BFEF745BF23AA08990A9826
:1058500002F04EFC00287FF46FA8259C249B0DF1DC
:10586000C00A129901330C44072B25942493CAF8DB
:105870000060CAF804107EF7EEAFFFF7CCB93046EF
:1058800002F0CCFBAB4603464CE41D9BD81C12DB5C
:105890009B4510DB1393D1E623AA08990A9802F0DE
:1058A00027FC00287FF448A80DF1C00A259CFFF7CB
:1058B000E1B92346B2E6119A023A1192013B9DF8F2
:1058C0004420002B1D93B8BF5B428DF87C20B4BFF1
:1058D0002D222B22092B8DF87D2040F3FF800DF126
:1058E0008B000446334A82FB0321DA17C2EBA10185
:1058F00001EB8102A3EB4202303209290B4604F886
:10590000012DEFDC21463033DAB201F8012D884257
:1059100040F266810DF17E01234601E013F8012B70
:10592000984201F8012BF9D1431C1B1B0DF17E029B
:1059300013441FAA9B1A129A1993012A13440D9318
:1059400040F30D810D9B169A134400220D93139280
:1059500023EAE37380E6144601330F9A2C44072BA5
:10596000259424938AE824003FF76FAF0AF1080AD0
:1059700077E723AA08990A9802F0BAFB00287EF478
:10598000DBAF0DF1C00A1D9B259CB2E45B46062BE4
:1059900028BF06230D9323EAE373B34637461396D5
:1059A0000E940993044EFEF794BE00BFE0960008E3
:1059B0009096000867666666D896000823AA08993C
:1059C0000A9802F095FB00287EF4B6AF1D9B129A50
:1059D000259CD31A0DF1C00AA3E40E921F4664E47D
:1059E0000E92FFF73BBA0793FEF75ABE2D231F46D0
:1059F0008DF86F30FFF754BB4FF0060BC6E521A8BA
:105A00001EA9049003911DA803210290099A3B4608
:105A1000CDF804B000910A9800F042FA5D460646BF
:105A200000EB0B04D3E6169A129B1344139A0D93C2
:105A3000002A40F39E80672223EAE37311920BE66B
:105A4000119B472B7FF4D6AD079BDC073FF5BAAE21
:105A5000219B9B1B12930D9B472B3FF416AF1D9B65
:105A60002CE7079B5F46DB0705D540AE302306F8E1
:105A7000413DFEF724BECDF834B030AEFEF722BE75
:105A8000002B40F38C80BBF1000F4AD1079AD1075D
:105A900047D41A4623EAE3730D92DDE52BEAEB7354
:105AA000CDF834B0099383460E9413909DF86F702F
:105AB000FEF70FBEA0460025FEF75CBD23AA08999D
:105AC0000A9802F015FB00287EF436AF0DF1C00AEB
:105AD0001D9D259C249B17E6219B9FE5303330229A
